{
  "_format": "hh-sol-artifact-1",
  "contractName": "MANI",
  "sourceName": "Contracts/MANIToken.sol",
  "abi": [
    {
      "inputs": [
        {
          "internalType": "uint256",
          "name": "_registerationTimeFrame",
          "type": "uint256"
        }
      ],
      "stateMutability": "nonpayable",
      "type": "constructor"
    },
    {
      "anonymous": false,
      "inputs": [
        {
          "indexed": true,
          "internalType": "address",
          "name": "owner",
          "type": "address"
        },
        {
          "indexed": true,
          "internalType": "address",
          "name": "spender",
          "type": "address"
        },
        {
          "indexed": false,
          "internalType": "uint256",
          "name": "value",
          "type": "uint256"
        }
      ],
      "name": "Approval",
      "type": "event"
    },
    {
      "anonymous": false,
      "inputs": [
        {
          "indexed": true,
          "internalType": "address",
          "name": "from",
          "type": "address"
        },
        {
          "indexed": true,
          "internalType": "address",
          "name": "to",
          "type": "address"
        },
        {
          "indexed": false,
          "internalType": "uint256",
          "name": "value",
          "type": "uint256"
        }
      ],
      "name": "Transfer",
      "type": "event"
    },
    {
      "inputs": [
        {
          "internalType": "address",
          "name": "owner",
          "type": "address"
        },
        {
          "internalType": "address",
          "name": "spender",
          "type": "address"
        }
      ],
      "name": "allowance",
      "outputs": [
        {
          "internalType": "uint256",
          "name": "",
          "type": "uint256"
        }
      ],
      "stateMutability": "view",
      "type": "function"
    },
    {
      "inputs": [
        {
          "internalType": "address",
          "name": "spender",
          "type": "address"
        },
        {
          "internalType": "uint256",
          "name": "amount",
          "type": "uint256"
        }
      ],
      "name": "approve",
      "outputs": [
        {
          "internalType": "bool",
          "name": "",
          "type": "bool"
        }
      ],
      "stateMutability": "nonpayable",
      "type": "function"
    },
    {
      "inputs": [
        {
          "internalType": "address",
          "name": "account",
          "type": "address"
        }
      ],
      "name": "balanceOf",
      "outputs": [
        {
          "internalType": "uint256",
          "name": "",
          "type": "uint256"
        }
      ],
      "stateMutability": "view",
      "type": "function"
    },
    {
      "inputs": [
        {
          "internalType": "bytes",
          "name": "",
          "type": "bytes"
        }
      ],
      "name": "checkUpkeep",
      "outputs": [
        {
          "internalType": "bool",
          "name": "upkeepNeeded",
          "type": "bool"
        },
        {
          "internalType": "bytes",
          "name": "performData",
          "type": "bytes"
        }
      ],
      "stateMutability": "view",
      "type": "function"
    },
    {
      "inputs": [],
      "name": "decimals",
      "outputs": [
        {
          "internalType": "uint8",
          "name": "",
          "type": "uint8"
        }
      ],
      "stateMutability": "view",
      "type": "function"
    },
    {
      "inputs": [
        {
          "internalType": "address",
          "name": "spender",
          "type": "address"
        },
        {
          "internalType": "uint256",
          "name": "subtractedValue",
          "type": "uint256"
        }
      ],
      "name": "decreaseAllowance",
      "outputs": [
        {
          "internalType": "bool",
          "name": "",
          "type": "bool"
        }
      ],
      "stateMutability": "nonpayable",
      "type": "function"
    },
    {
      "inputs": [],
      "name": "getRegisteredAddresses",
      "outputs": [
        {
          "internalType": "address[]",
          "name": "",
          "type": "address[]"
        }
      ],
      "stateMutability": "view",
      "type": "function"
    },
    {
      "inputs": [],
      "name": "getState",
      "outputs": [
        {
          "internalType": "enum MANI.State",
          "name": "",
          "type": "uint8"
        }
      ],
      "stateMutability": "view",
      "type": "function"
    },
    {
      "inputs": [],
      "name": "getTotalNumberOfAirdrop",
      "outputs": [
        {
          "internalType": "uint256",
          "name": "",
          "type": "uint256"
        }
      ],
      "stateMutability": "view",
      "type": "function"
    },
    {
      "inputs": [
        {
          "internalType": "address",
          "name": "spender",
          "type": "address"
        },
        {
          "internalType": "uint256",
          "name": "addedValue",
          "type": "uint256"
        }
      ],
      "name": "increaseAllowance",
      "outputs": [
        {
          "internalType": "bool",
          "name": "",
          "type": "bool"
        }
      ],
      "stateMutability": "nonpayable",
      "type": "function"
    },
    {
      "inputs": [],
      "name": "manuallyStartAirDrop",
      "outputs": [],
      "stateMutability": "nonpayable",
      "type": "function"
    },
    {
      "inputs": [],
      "name": "name",
      "outputs": [
        {
          "internalType": "string",
          "name": "",
          "type": "string"
        }
      ],
      "stateMutability": "view",
      "type": "function"
    },
    {
      "inputs": [
        {
          "internalType": "bytes",
          "name": "",
          "type": "bytes"
        }
      ],
      "name": "performUpkeep",
      "outputs": [],
      "stateMutability": "nonpayable",
      "type": "function"
    },
    {
      "inputs": [],
      "name": "register",
      "outputs": [
        {
          "internalType": "bool",
          "name": "",
          "type": "bool"
        }
      ],
      "stateMutability": "nonpayable",
      "type": "function"
    },
    {
      "inputs": [
        {
          "internalType": "address",
          "name": "",
          "type": "address"
        }
      ],
      "name": "registered",
      "outputs": [
        {
          "internalType": "bool",
          "name": "",
          "type": "bool"
        }
      ],
      "stateMutability": "view",
      "type": "function"
    },
    {
      "inputs": [
        {
          "internalType": "address",
          "name": "admin",
          "type": "address"
        }
      ],
      "name": "setSuperAdmin",
      "outputs": [],
      "stateMutability": "nonpayable",
      "type": "function"
    },
    {
      "inputs": [
        {
          "internalType": "address",
          "name": "voteContractAddress",
          "type": "address"
        }
      ],
      "name": "setVoteContract",
      "outputs": [],
      "stateMutability": "nonpayable",
      "type": "function"
    },
    {
      "inputs": [],
      "name": "symbol",
      "outputs": [
        {
          "internalType": "string",
          "name": "",
          "type": "string"
        }
      ],
      "stateMutability": "view",
      "type": "function"
    },
    {
      "inputs": [],
      "name": "totalSupply",
      "outputs": [
        {
          "internalType": "uint256",
          "name": "",
          "type": "uint256"
        }
      ],
      "stateMutability": "view",
      "type": "function"
    },
    {
      "inputs": [
        {
          "internalType": "address",
          "name": "to",
          "type": "address"
        },
        {
          "internalType": "uint256",
          "name": "amount",
          "type": "uint256"
        }
      ],
      "name": "transfer",
      "outputs": [
        {
          "internalType": "bool",
          "name": "",
          "type": "bool"
        }
      ],
      "stateMutability": "nonpayable",
      "type": "function"
    },
    {
      "inputs": [
        {
          "internalType": "address",
          "name": "from",
          "type": "address"
        },
        {
          "internalType": "address",
          "name": "to",
          "type": "address"
        },
        {
          "internalType": "uint256",
          "name": "amount",
          "type": "uint256"
        }
      ],
      "name": "transferFrom",
      "outputs": [
        {
          "internalType": "bool",
          "name": "",
          "type": "bool"
        }
      ],
      "stateMutability": "nonpayable",
      "type": "function"
    },
    {
      "inputs": [],
      "name": "withdrawTokens",
      "outputs": [],
      "stateMutability": "nonpayable",
      "type": "function"
    }
  ],
  "bytecode": "0x60806040523480156200001157600080fd5b5060405162002db838038062002db88339818101604052810190620000379190620003f8565b6040518060400160405280600d81526020017f4d414e49464553544154494f4e000000000000000000000000000000000000008152506040518060400160405280600481526020017f4d414e49000000000000000000000000000000000000000000000000000000008152508160039080519060200190620000bb92919062000308565b508060049080519060200190620000d492919062000308565b505050620000f133671bc16d674ec800006200017d60201b60201c565b6000600d60006101000a81548160ff021916908360038111156200011a57620001196200042a565b5b02179055508060088190555062000136620002f660201b60201c565b600660006101000a81548173ffffffffffffffffffffffffffffffffffffffff021916908373ffffffffffffffffffffffffffffffffffffffff16021790555050620005fb565b600073ffffffffffffffffffffffffffffffffffffffff168273ffffffffffffffffffffffffffffffffffffffff161415620001f0576040517f08c379a0000000000000000000000000000000000000000000000000000000008152600401620001e790620004ba565b60405180910390fd5b6200020460008383620002fe60201b60201c565b80600260008282546200021891906200050b565b92505081905550806000808473ffffffffffffffffffffffffffffffffffffffff1673ffffffffffffffffffffffffffffffffffffffff16815260200190815260200160002060008282546200026f91906200050b565b925050819055508173ffffffffffffffffffffffffffffffffffffffff16600073ffffffffffffffffffffffffffffffffffffffff167fddf252ad1be2c89b69c2b068fc378daa952ba7f163c4a11628f55a4df523b3ef83604051620002d6919062000579565b60405180910390a3620002f2600083836200030360201b60201c565b5050565b600033905090565b505050565b505050565b8280546200031690620005c5565b90600052602060002090601f0160209004810192826200033a576000855562000386565b82601f106200035557805160ff191683800117855562000386565b8280016001018555821562000386579182015b828111156200038557825182559160200191906001019062000368565b5b50905062000395919062000399565b5090565b5b80821115620003b45760008160009055506001016200039a565b5090565b600080fd5b6000819050919050565b620003d281620003bd565b8114620003de57600080fd5b50565b600081519050620003f281620003c7565b92915050565b600060208284031215620004115762000410620003b8565b5b60006200042184828501620003e1565b91505092915050565b7f4e487b7100000000000000000000000000000000000000000000000000000000600052602160045260246000fd5b600082825260208201905092915050565b7f45524332303a206d696e7420746f20746865207a65726f206164647265737300600082015250565b6000620004a2601f8362000459565b9150620004af826200046a565b602082019050919050565b60006020820190508181036000830152620004d58162000493565b9050919050565b7f4e487b7100000000000000000000000000000000000000000000000000000000600052601160045260246000fd5b60006200051882620003bd565b91506200052583620003bd565b9250827fffffffffffffffffffffffffffffffffffffffffffffffffffffffffffffffff038211156200055d576200055c620004dc565b5b828201905092915050565b6200057381620003bd565b82525050565b600060208201905062000590600083018462000568565b92915050565b7f4e487b7100000000000000000000000000000000000000000000000000000000600052602260045260246000fd5b60006002820490506001821680620005de57607f821691505b60208210811415620005f557620005f462000596565b5b50919050565b6127ad806200060b6000396000f3fe608060405234801561001057600080fd5b50600436106101425760003560e01c8063620e9851116100b8578063a457c2d71161007c578063a457c2d71461036a578063a9059cbb1461039a578063ac6a13ad146103ca578063b2dd5c07146103e6578063bd07856214610416578063dd62ed3e1461042057610142565b8063620e9851146102c35780636e04ff0d146102e157806370a08231146103125780638d8f2adb1461034257806395d89b411461034c57610142565b80631aa3a0081161010a5780631aa3a008146101ed578063227ef0611461020b57806323b872dd14610229578063313ce5671461025957806339509351146102775780634585e33b146102a757610142565b806306fdde0314610147578063095ea7b314610165578063157000521461019557806318160ddd146101b15780631865c57d146101cf575b600080fd5b61014f610450565b60405161015c919061198a565b60405180910390f35b61017f600480360381019061017a9190611a4a565b6104e2565b60405161018c9190611aa5565b60405180910390f35b6101af60048036038101906101aa9190611ac0565b610505565b005b6101b96105e0565b6040516101c69190611afc565b60405180910390f35b6101d76105ea565b6040516101e49190611b8e565b60405180910390f35b6101f5610698565b6040516102029190611aa5565b60405180910390f35b61021361093a565b6040516102209190611c67565b60405180910390f35b610243600480360381019061023e9190611c89565b6109c8565b6040516102509190611aa5565b60405180910390f35b6102616109f7565b60405161026e9190611cf8565b60405180910390f35b610291600480360381019061028c9190611a4a565b610a00565b60405161029e9190611aa5565b60405180910390f35b6102c160048036038101906102bc9190611d78565b610a37565b005b6102cb610ab1565b6040516102d89190611afc565b60405180910390f35b6102fb60048036038101906102f69190611d78565b610b52565b604051610309929190611e1a565b60405180910390f35b61032c60048036038101906103279190611ac0565b610bce565b6040516103399190611afc565b60405180910390f35b61034a610c16565b005b610354610cea565b604051610361919061198a565b60405180910390f35b610384600480360381019061037f9190611a4a565b610d7c565b6040516103919190611aa5565b60405180910390f35b6103b460048036038101906103af9190611a4a565b610df3565b6040516103c19190611aa5565b60405180910390f35b6103e460048036038101906103df9190611ac0565b610e16565b005b61040060048036038101906103fb9190611ac0565b610f23565b60405161040d9190611aa5565b60405180910390f35b61041e610f43565b005b61043a60048036038101906104359190611e4a565b6110b0565b6040516104479190611afc565b60405180910390f35b60606003805461045f90611eb9565b80601f016020809104026020016040519081016040528092919081815260200182805461048b90611eb9565b80156104d85780601f106104ad576101008083540402835291602001916104d8565b820191906000526020600020905b8154815290600101906020018083116104bb57829003601f168201915b5050505050905090565b6000806104ed611137565b90506104fa81858561113f565b600191505092915050565b600660009054906101000a900473ffffffffffffffffffffffffffffffffffffffff1673ffffffffffffffffffffffffffffffffffffffff16610546611137565b73ffffffffffffffffffffffffffffffffffffffff161461059c576040517f08c379a000000000000000000000000000000000000000000000000000000000815260040161059390611f37565b60405180910390fd5b80600660006101000a81548173ffffffffffffffffffffffffffffffffffffffff021916908373ffffffffffffffffffffffffffffffffffffffff16021790555050565b6000600254905090565b6000600660009054906101000a900473ffffffffffffffffffffffffffffffffffffffff1673ffffffffffffffffffffffffffffffffffffffff1661062d611137565b73ffffffffffffffffffffffffffffffffffffffff1614610683576040517f08c379a000000000000000000000000000000000000000000000000000000000815260040161067a90611f37565b60405180910390fd5b600d60009054906101000a900460ff16905090565b60008073ffffffffffffffffffffffffffffffffffffffff16600560009054906101000a900473ffffffffffffffffffffffffffffffffffffffff1673ffffffffffffffffffffffffffffffffffffffff16141561072b576040517f08c379a000000000000000000000000000000000000000000000000000000000815260040161072290611fa3565b60405180910390fd5b6001600381111561073f5761073e611b17565b5b600d60009054906101000a900460ff16600381111561076157610760611b17565b5b146107a1576040517f08c379a00000000000000000000000000000000000000000000000000000000081526004016107989061200f565b60405180910390fd5b600a60006107ad611137565b73ffffffffffffffffffffffffffffffffffffffff1673ffffffffffffffffffffffffffffffffffffffff16815260200190815260200160002060009054906101000a900460ff1615610835576040517f08c379a000000000000000000000000000000000000000000000000000000000815260040161082c9061207b565b60405180910390fd5b600761083f611137565b9080600181540180825580915050600190039060005260206000200160009091909190916101000a81548173ffffffffffffffffffffffffffffffffffffffff021916908373ffffffffffffffffffffffffffffffffffffffff1602179055506001600a60006108ad611137565b73ffffffffffffffffffffffffffffffffffffffff1673ffffffffffffffffffffffffffffffffffffffff16815260200190815260200160002060006101000a81548160ff021916908315150217905550610932600560009054906101000a900473ffffffffffffffffffffffffffffffffffffffff16671bc16d674ec800006104e2565b506001905090565b606060078054806020026020016040519081016040528092919081815260200182805480156109be57602002820191906000526020600020905b8160009054906101000a900473ffffffffffffffffffffffffffffffffffffffff1673ffffffffffffffffffffffffffffffffffffffff1681526020019060010190808311610974575b5050505050905090565b6000806109d3611137565b90506109e085828561130a565b6109eb858585611396565b60019150509392505050565b60006012905090565b600080610a0b611137565b9050610a2c818585610a1d85896110b0565b610a2791906120ca565b61113f565b600191505092915050565b60085460095442610a489190612120565b1115610aad576002600d60006101000a81548160ff02191690836003811115610a7457610a73611b17565b5b0217905550610a81611617565b6003600d60006101000a81548160ff02191690836003811115610aa757610aa6611b17565b5b02179055505b5050565b6000600660009054906101000a900473ffffffffffffffffffffffffffffffffffffffff1673ffffffffffffffffffffffffffffffffffffffff16610af4611137565b73ffffffffffffffffffffffffffffffffffffffff1614610b4a576040517f08c379a0000000000000000000000000000000000000000000000000000000008152600401610b4190611f37565b60405180910390fd5b600c54905090565b6000606060016003811115610b6a57610b69611b17565b5b600d60009054906101000a900460ff166003811115610b8c57610b8b611b17565b5b1415610bc75760085460095442610ba39190612120565b119150604051602001610bb5906121a0565b60405160208183030381529060405290505b9250929050565b60008060008373ffffffffffffffffffffffffffffffffffffffff1673ffffffffffffffffffffffffffffffffffffffff168152602001908152602001600020549050919050565b600660009054906101000a900473ffffffffffffffffffffffffffffffffffffffff1673ffffffffffffffffffffffffffffffffffffffff16610c57611137565b73ffffffffffffffffffffffffffffffffffffffff1614610cad576040517f08c379a0000000000000000000000000000000000000000000000000000000008152600401610ca490611f37565b60405180910390fd5b6000610cb830610bce565b9050610ce6600660009054906101000a900473ffffffffffffffffffffffffffffffffffffffff1682610df3565b5050565b606060048054610cf990611eb9565b80601f0160208091040260200160405190810160405280929190818152602001828054610d2590611eb9565b8015610d725780601f10610d4757610100808354040283529160200191610d72565b820191906000526020600020905b815481529060010190602001808311610d5557829003601f168201915b5050505050905090565b600080610d87611137565b90506000610d9582866110b0565b905083811015610dda576040517f08c379a0000000000000000000000000000000000000000000000000000000008152600401610dd190612232565b60405180910390fd5b610de7828686840361113f565b60019250505092915050565b600080610dfe611137565b9050610e0b818585611396565b600191505092915050565b600660009054906101000a900473ffffffffffffffffffffffffffffffffffffffff1673ffffffffffffffffffffffffffffffffffffffff16610e57611137565b73ffffffffffffffffffffffffffffffffffffffff1614610ead576040517f08c379a0000000000000000000000000000000000000000000000000000000008152600401610ea490611f37565b60405180910390fd5b80600560006101000a81548173ffffffffffffffffffffffffffffffffffffffff021916908373ffffffffffffffffffffffffffffffffffffffff160217905550426009819055506001600d60006101000a81548160ff02191690836003811115610f1b57610f1a611b17565b5b021790555050565b600a6020528060005260406000206000915054906101000a900460ff1681565b600660009054906101000a900473ffffffffffffffffffffffffffffffffffffffff1673ffffffffffffffffffffffffffffffffffffffff16610f84611137565b73ffffffffffffffffffffffffffffffffffffffff1614610fda576040517f08c379a0000000000000000000000000000000000000000000000000000000008152600401610fd190611f37565b60405180910390fd5b60016003811115610fee57610fed611b17565b5b600d60009054906101000a900460ff1660038111156110105761100f611b17565b5b14611050576040517f08c379a00000000000000000000000000000000000000000000000000000000081526004016110479061229e565b60405180910390fd5b6002600d60006101000a81548160ff0219169083600381111561107657611075611b17565b5b0217905550611083611617565b6003600d60006101000a81548160ff021916908360038111156110a9576110a8611b17565b5b0217905550565b6000600160008473ffffffffffffffffffffffffffffffffffffffff1673ffffffffffffffffffffffffffffffffffffffff16815260200190815260200160002060008373ffffffffffffffffffffffffffffffffffffffff1673ffffffffffffffffffffffffffffffffffffffff16815260200190815260200160002054905092915050565b600033905090565b600073ffffffffffffffffffffffffffffffffffffffff168373ffffffffffffffffffffffffffffffffffffffff1614156111af576040517f08c379a00000000000000000000000000000000000000000000000000000000081526004016111a690612330565b60405180910390fd5b600073ffffffffffffffffffffffffffffffffffffffff168273ffffffffffffffffffffffffffffffffffffffff16141561121f576040517f08c379a0000000000000000000000000000000000000000000000000000000008152600401611216906123c2565b60405180910390fd5b80600160008573ffffffffffffffffffffffffffffffffffffffff1673ffffffffffffffffffffffffffffffffffffffff16815260200190815260200160002060008473ffffffffffffffffffffffffffffffffffffffff1673ffffffffffffffffffffffffffffffffffffffff168152602001908152602001600020819055508173ffffffffffffffffffffffffffffffffffffffff168373ffffffffffffffffffffffffffffffffffffffff167f8c5be1e5ebec7d5bd14f71427d1e84f3dd0314c0f7b2291e5b200ac8c7c3b925836040516112fd9190611afc565b60405180910390a3505050565b600061131684846110b0565b90507fffffffffffffffffffffffffffffffffffffffffffffffffffffffffffffffff81146113905781811015611382576040517f08c379a00000000000000000000000000000000000000000000000000000000081526004016113799061242e565b60405180910390fd5b61138f848484840361113f565b5b50505050565b600073ffffffffffffffffffffffffffffffffffffffff168373ffffffffffffffffffffffffffffffffffffffff161415611406576040517f08c379a00000000000000000000000000000000000000000000000000000000081526004016113fd906124c0565b60405180910390fd5b600073ffffffffffffffffffffffffffffffffffffffff168273ffffffffffffffffffffffffffffffffffffffff161415611476576040517f08c379a000000000000000000000000000000000000000000000000000000000815260040161146d90612552565b60405180910390fd5b611481838383611787565b60008060008573ffffffffffffffffffffffffffffffffffffffff1673ffffffffffffffffffffffffffffffffffffffff16815260200190815260200160002054905081811015611507576040517f08c379a00000000000000000000000000000000000000000000000000000000081526004016114fe906125e4565b60405180910390fd5b8181036000808673ffffffffffffffffffffffffffffffffffffffff1673ffffffffffffffffffffffffffffffffffffffff16815260200190815260200160002081905550816000808573ffffffffffffffffffffffffffffffffffffffff1673ffffffffffffffffffffffffffffffffffffffff168152602001908152602001600020600082825461159a91906120ca565b925050819055508273ffffffffffffffffffffffffffffffffffffffff168473ffffffffffffffffffffffffffffffffffffffff167fddf252ad1be2c89b69c2b068fc378daa952ba7f163c4a11628f55a4df523b3ef846040516115fe9190611afc565b60405180910390a361161184848461178c565b50505050565b600b60009054906101000a900460ff1615611667576040517f08c379a000000000000000000000000000000000000000000000000000000000815260040161165e90612650565b60405180910390fd5b6002600381111561167b5761167a611b17565b5b600d60009054906101000a900460ff16600381111561169d5761169c611b17565b5b146116dd576040517f08c379a00000000000000000000000000000000000000000000000000000000081526004016116d4906126bc565b60405180910390fd5b60005b6007805490508110156117695761173d60078281548110611704576117036126dc565b5b9060005260206000200160009054906101000a900473ffffffffffffffffffffffffffffffffffffffff16671bc16d674ec80000611791565b671bc16d674ec80000600c600082825461175791906120ca565b925050819055508060010190506116e0565b506001600b60006101000a81548160ff021916908315150217905550565b505050565b505050565b600073ffffffffffffffffffffffffffffffffffffffff168273ffffffffffffffffffffffffffffffffffffffff161415611801576040517f08c379a00000000000000000000000000000000000000000000000000000000081526004016117f890612757565b60405180910390fd5b61180d60008383611787565b806002600082825461181f91906120ca565b92505081905550806000808473ffffffffffffffffffffffffffffffffffffffff1673ffffffffffffffffffffffffffffffffffffffff168152602001908152602001600020600082825461187491906120ca565b925050819055508173ffffffffffffffffffffffffffffffffffffffff16600073ffffffffffffffffffffffffffffffffffffffff167fddf252ad1be2c89b69c2b068fc378daa952ba7f163c4a11628f55a4df523b3ef836040516118d99190611afc565b60405180910390a36118ed6000838361178c565b5050565b600081519050919050565b600082825260208201905092915050565b60005b8381101561192b578082015181840152602081019050611910565b8381111561193a576000848401525b50505050565b6000601f19601f8301169050919050565b600061195c826118f1565b61196681856118fc565b935061197681856020860161190d565b61197f81611940565b840191505092915050565b600060208201905081810360008301526119a48184611951565b905092915050565b600080fd5b600080fd5b600073ffffffffffffffffffffffffffffffffffffffff82169050919050565b60006119e1826119b6565b9050919050565b6119f1816119d6565b81146119fc57600080fd5b50565b600081359050611a0e816119e8565b92915050565b6000819050919050565b611a2781611a14565b8114611a3257600080fd5b50565b600081359050611a4481611a1e565b92915050565b60008060408385031215611a6157611a606119ac565b5b6000611a6f858286016119ff565b9250506020611a8085828601611a35565b9150509250929050565b60008115159050919050565b611a9f81611a8a565b82525050565b6000602082019050611aba6000830184611a96565b92915050565b600060208284031215611ad657611ad56119ac565b5b6000611ae4848285016119ff565b91505092915050565b611af681611a14565b82525050565b6000602082019050611b116000830184611aed565b92915050565b7f4e487b7100000000000000000000000000000000000000000000000000000000600052602160045260246000fd5b60048110611b5757611b56611b17565b5b50565b6000819050611b6882611b46565b919050565b6000611b7882611b5a565b9050919050565b611b8881611b6d565b82525050565b6000602082019050611ba36000830184611b7f565b92915050565b600081519050919050565b600082825260208201905092915050565b6000819050602082019050919050565b611bde816119d6565b82525050565b6000611bf08383611bd5565b60208301905092915050565b6000602082019050919050565b6000611c1482611ba9565b611c1e8185611bb4565b9350611c2983611bc5565b8060005b83811015611c5a578151611c418882611be4565b9750611c4c83611bfc565b925050600181019050611c2d565b5085935050505092915050565b60006020820190508181036000830152611c818184611c09565b905092915050565b600080600060608486031215611ca257611ca16119ac565b5b6000611cb0868287016119ff565b9350506020611cc1868287016119ff565b9250506040611cd286828701611a35565b9150509250925092565b600060ff82169050919050565b611cf281611cdc565b82525050565b6000602082019050611d0d6000830184611ce9565b92915050565b600080fd5b600080fd5b600080fd5b60008083601f840112611d3857611d37611d13565b5b8235905067ffffffffffffffff811115611d5557611d54611d18565b5b602083019150836001820283011115611d7157611d70611d1d565b5b9250929050565b60008060208385031215611d8f57611d8e6119ac565b5b600083013567ffffffffffffffff811115611dad57611dac6119b1565b5b611db985828601611d22565b92509250509250929050565b600081519050919050565b600082825260208201905092915050565b6000611dec82611dc5565b611df68185611dd0565b9350611e0681856020860161190d565b611e0f81611940565b840191505092915050565b6000604082019050611e2f6000830185611a96565b8181036020830152611e418184611de1565b90509392505050565b60008060408385031215611e6157611e606119ac565b5b6000611e6f858286016119ff565b9250506020611e80858286016119ff565b9150509250929050565b7f4e487b7100000000000000000000000000000000000000000000000000000000600052602260045260246000fd5b60006002820490506001821680611ed157607f821691505b60208210811415611ee557611ee4611e8a565b5b50919050565b7f6e6f7420617574686f72697a6564000000000000000000000000000000000000600082015250565b6000611f21600e836118fc565b9150611f2c82611eeb565b602082019050919050565b60006020820190508181036000830152611f5081611f14565b9050919050565b7f72656769737465726174696f6e206e6f74206f70656e65640000000000000000600082015250565b6000611f8d6018836118fc565b9150611f9882611f57565b602082019050919050565b60006020820190508181036000830152611fbc81611f80565b9050919050565b7f72656769737465726174696f6e20636c6f736564000000000000000000000000600082015250565b6000611ff96014836118fc565b915061200482611fc3565b602082019050919050565b6000602082019050818103600083015261202881611fec565b9050919050565b7f796f7520616c7265616479207265676973746572656400000000000000000000600082015250565b60006120656016836118fc565b91506120708261202f565b602082019050919050565b6000602082019050818103600083015261209481612058565b9050919050565b7f4e487b7100000000000000000000000000000000000000000000000000000000600052601160045260246000fd5b60006120d582611a14565b91506120e083611a14565b9250827fffffffffffffffffffffffffffffffffffffffffffffffffffffffffffffffff038211156121155761211461209b565b5b828201905092915050565b600061212b82611a14565b915061213683611a14565b9250828210156121495761214861209b565b5b828203905092915050565b7f6d616e6900000000000000000000000000000000000000000000000000000000600082015250565b600061218a6004836118fc565b915061219582612154565b602082019050919050565b600060208201905081810360008301526121b98161217d565b9050919050565b7f45524332303a2064656372656173656420616c6c6f77616e63652062656c6f7760008201527f207a65726f000000000000000000000000000000000000000000000000000000602082015250565b600061221c6025836118fc565b9150612227826121c0565b604082019050919050565b6000602082019050818103600083015261224b8161220f565b9050919050565b7f6e6f74207265676973746572696e670000000000000000000000000000000000600082015250565b6000612288600f836118fc565b915061229382612252565b602082019050919050565b600060208201905081810360008301526122b78161227b565b9050919050565b7f45524332303a20617070726f76652066726f6d20746865207a65726f2061646460008201527f7265737300000000000000000000000000000000000000000000000000000000602082015250565b600061231a6024836118fc565b9150612325826122be565b604082019050919050565b600060208201905081810360008301526123498161230d565b9050919050565b7f45524332303a20617070726f766520746f20746865207a65726f20616464726560008201527f7373000000000000000000000000000000000000000000000000000000000000602082015250565b60006123ac6022836118fc565b91506123b782612350565b604082019050919050565b600060208201905081810360008301526123db8161239f565b9050919050565b7f45524332303a20696e73756666696369656e7420616c6c6f77616e6365000000600082015250565b6000612418601d836118fc565b9150612423826123e2565b602082019050919050565b600060208201905081810360008301526124478161240b565b9050919050565b7f45524332303a207472616e736665722066726f6d20746865207a65726f20616460008201527f6472657373000000000000000000000000000000000000000000000000000000602082015250565b60006124aa6025836118fc565b91506124b58261244e565b604082019050919050565b600060208201905081810360008301526124d98161249d565b9050919050565b7f45524332303a207472616e7366657220746f20746865207a65726f206164647260008201527f6573730000000000000000000000000000000000000000000000000000000000602082015250565b600061253c6023836118fc565b9150612547826124e0565b604082019050919050565b6000602082019050818103600083015261256b8161252f565b9050919050565b7f45524332303a207472616e7366657220616d6f756e742065786365656473206260008201527f616c616e63650000000000000000000000000000000000000000000000000000602082015250565b60006125ce6026836118fc565b91506125d982612572565b604082019050919050565b600060208201905081810360008301526125fd816125c1565b9050919050565b7f616c72656164792061697264726f707065640000000000000000000000000000600082015250565b600061263a6012836118fc565b915061264582612604565b602082019050919050565b600060208201905081810360008301526126698161262d565b9050919050565b7f6e6f742061697264726f7070696e672063757272656e746c7900000000000000600082015250565b60006126a66019836118fc565b91506126b182612670565b602082019050919050565b600060208201905081810360008301526126d581612699565b9050919050565b7f4e487b7100000000000000000000000000000000000000000000000000000000600052603260045260246000fd5b7f45524332303a206d696e7420746f20746865207a65726f206164647265737300600082015250565b6000612741601f836118fc565b915061274c8261270b565b602082019050919050565b6000602082019050818103600083015261277081612734565b905091905056fea2646970667358221220526c5b7cbb85cddb7b81b6643b33f33f72ec1b70b9a1f4df0735837c4483aafa64736f6c63430008090033",
  "linkReferences": {},
  "deployedLinkReferences": {}
}