{
  "_format": "hh-sol-artifact-1",
  "contractName": "NewManagement",
  "sourceName": "Contracts/NewManagement.sol",
  "abi": [
    {
      "inputs": [
        {
          "internalType": "uint256",
          "name": "_maxNumbersOfProposals",
          "type": "uint256"
        },
        {
          "internalType": "address",
          "name": "token_Address",
          "type": "address"
        },
        {
          "internalType": "uint256",
          "name": "proposalTimeFrame",
          "type": "uint256"
        },
        {
          "internalType": "uint256",
          "name": "votingTimeFrame",
          "type": "uint256"
        }
      ],
      "stateMutability": "nonpayable",
      "type": "constructor"
    },
    {
      "anonymous": false,
      "inputs": [
        {
          "indexed": false,
          "internalType": "uint256[]",
          "name": "result",
          "type": "uint256[]"
        }
      ],
      "name": "finalResult",
      "type": "event"
    },
    {
      "anonymous": false,
      "inputs": [
        {
          "indexed": false,
          "internalType": "uint256",
          "name": "time",
          "type": "uint256"
        }
      ],
      "name": "proposalStarted",
      "type": "event"
    },
    {
      "anonymous": false,
      "inputs": [
        {
          "indexed": false,
          "internalType": "uint256",
          "name": "id",
          "type": "uint256"
        },
        {
          "indexed": false,
          "internalType": "address",
          "name": "sender",
          "type": "address"
        }
      ],
      "name": "proposalSubmitted",
      "type": "event"
    },
    {
      "anonymous": false,
      "inputs": [
        {
          "indexed": false,
          "internalType": "uint256",
          "name": "time",
          "type": "uint256"
        }
      ],
      "name": "resultReady",
      "type": "event"
    },
    {
      "anonymous": false,
      "inputs": [
        {
          "indexed": false,
          "internalType": "uint256",
          "name": "id",
          "type": "uint256"
        },
        {
          "indexed": false,
          "internalType": "address",
          "name": "sender",
          "type": "address"
        }
      ],
      "name": "userVoted",
      "type": "event"
    },
    {
      "anonymous": false,
      "inputs": [
        {
          "indexed": false,
          "internalType": "uint256",
          "name": "id",
          "type": "uint256"
        },
        {
          "indexed": false,
          "internalType": "address",
          "name": "sender",
          "type": "address"
        }
      ],
      "name": "userVotedAgain",
      "type": "event"
    },
    {
      "anonymous": false,
      "inputs": [
        {
          "indexed": false,
          "internalType": "uint256",
          "name": "time",
          "type": "uint256"
        }
      ],
      "name": "votingStarted",
      "type": "event"
    },
    {
      "inputs": [
        {
          "internalType": "string",
          "name": "_name",
          "type": "string"
        }
      ],
      "name": "checkIfNameExists",
      "outputs": [
        {
          "internalType": "bool",
          "name": "",
          "type": "bool"
        }
      ],
      "stateMutability": "view",
      "type": "function"
    },
    {
      "inputs": [],
      "name": "checkIfResultHasBeenGotten",
      "outputs": [
        {
          "internalType": "bool",
          "name": "",
          "type": "bool"
        }
      ],
      "stateMutability": "view",
      "type": "function"
    },
    {
      "inputs": [
        {
          "internalType": "address",
          "name": "_address",
          "type": "address"
        }
      ],
      "name": "checkIfUserAlreadySubmittedProposal",
      "outputs": [
        {
          "internalType": "bool",
          "name": "",
          "type": "bool"
        }
      ],
      "stateMutability": "view",
      "type": "function"
    },
    {
      "inputs": [
        {
          "internalType": "bytes",
          "name": "",
          "type": "bytes"
        }
      ],
      "name": "checkUpkeep",
      "outputs": [
        {
          "internalType": "bool",
          "name": "upkeepNeeded",
          "type": "bool"
        },
        {
          "internalType": "bytes",
          "name": "",
          "type": "bytes"
        }
      ],
      "stateMutability": "view",
      "type": "function"
    },
    {
      "inputs": [],
      "name": "getCurrentState",
      "outputs": [
        {
          "internalType": "enum NewManagement.State",
          "name": "",
          "type": "uint8"
        }
      ],
      "stateMutability": "view",
      "type": "function"
    },
    {
      "inputs": [],
      "name": "getResult",
      "outputs": [
        {
          "internalType": "uint256[]",
          "name": "",
          "type": "uint256[]"
        }
      ],
      "stateMutability": "view",
      "type": "function"
    },
    {
      "inputs": [
        {
          "internalType": "uint256",
          "name": "id",
          "type": "uint256"
        }
      ],
      "name": "getSingleProposalResult",
      "outputs": [
        {
          "internalType": "uint256",
          "name": "",
          "type": "uint256"
        }
      ],
      "stateMutability": "view",
      "type": "function"
    },
    {
      "inputs": [],
      "name": "getStateUrl",
      "outputs": [
        {
          "internalType": "string",
          "name": "",
          "type": "string"
        }
      ],
      "stateMutability": "view",
      "type": "function"
    },
    {
      "inputs": [
        {
          "internalType": "uint256",
          "name": "id",
          "type": "uint256"
        }
      ],
      "name": "getTheProposalUrl",
      "outputs": [
        {
          "internalType": "string",
          "name": "",
          "type": "string"
        }
      ],
      "stateMutability": "view",
      "type": "function"
    },
    {
      "inputs": [],
      "name": "getlastProposal",
      "outputs": [
        {
          "internalType": "uint256",
          "name": "",
          "type": "uint256"
        }
      ],
      "stateMutability": "view",
      "type": "function"
    },
    {
      "inputs": [],
      "name": "manuallyEndVoting",
      "outputs": [],
      "stateMutability": "nonpayable",
      "type": "function"
    },
    {
      "inputs": [],
      "name": "manuallyStartVoting",
      "outputs": [],
      "stateMutability": "nonpayable",
      "type": "function"
    },
    {
      "inputs": [
        {
          "internalType": "bytes",
          "name": "",
          "type": "bytes"
        }
      ],
      "name": "performUpkeep",
      "outputs": [],
      "stateMutability": "nonpayable",
      "type": "function"
    },
    {
      "inputs": [
        {
          "internalType": "address",
          "name": "_address",
          "type": "address"
        }
      ],
      "name": "reJectVote",
      "outputs": [
        {
          "internalType": "bool",
          "name": "",
          "type": "bool"
        }
      ],
      "stateMutability": "view",
      "type": "function"
    },
    {
      "inputs": [],
      "name": "retrieveVoteTokens",
      "outputs": [],
      "stateMutability": "nonpayable",
      "type": "function"
    },
    {
      "inputs": [
        {
          "internalType": "string",
          "name": "newUrl",
          "type": "string"
        }
      ],
      "name": "setStateUrl",
      "outputs": [],
      "stateMutability": "nonpayable",
      "type": "function"
    },
    {
      "inputs": [],
      "name": "startReceivingProposals",
      "outputs": [],
      "stateMutability": "nonpayable",
      "type": "function"
    },
    {
      "inputs": [
        {
          "internalType": "string",
          "name": "_name",
          "type": "string"
        },
        {
          "internalType": "string",
          "name": "url",
          "type": "string"
        }
      ],
      "name": "submitProposal",
      "outputs": [
        {
          "internalType": "uint256",
          "name": "",
          "type": "uint256"
        }
      ],
      "stateMutability": "nonpayable",
      "type": "function"
    },
    {
      "inputs": [
        {
          "internalType": "uint256",
          "name": "id",
          "type": "uint256"
        }
      ],
      "name": "voteProposal",
      "outputs": [
        {
          "internalType": "bool",
          "name": "",
          "type": "bool"
        }
      ],
      "stateMutability": "nonpayable",
      "type": "function"
    }
  ],
  "bytecode": "0x60806040523480156200001157600080fd5b506040516200341738038062003417833981810160405281019062000037919062000203565b8360078190555082600a60006101000a81548173ffffffffffffffffffffffffffffffffffffffff021916908373ffffffffffffffffffffffffffffffffffffffff16021790555082600860006101000a81548173ffffffffffffffffffffffffffffffffffffffff021916908373ffffffffffffffffffffffffffffffffffffffff1602179055508060038190555081600481905550620000de6200015660201b60201c565b600960006101000a81548173ffffffffffffffffffffffffffffffffffffffff021916908373ffffffffffffffffffffffffffffffffffffffff1602179055506000600260006101000a81548160ff0219169083600381111562000147576200014662000275565b5b021790555050505050620002a4565b600033905090565b600080fd5b6000819050919050565b620001788162000163565b81146200018457600080fd5b50565b60008151905062000198816200016d565b92915050565b600073ffffffffffffffffffffffffffffffffffffffff82169050919050565b6000620001cb826200019e565b9050919050565b620001dd81620001be565b8114620001e957600080fd5b50565b600081519050620001fd81620001d2565b92915050565b6000806000806080858703121562000220576200021f6200015e565b5b6000620002308782880162000187565b94505060206200024387828801620001ec565b9350506040620002568782880162000187565b9250506060620002698782880162000187565b91505092959194509250565b7f4e487b7100000000000000000000000000000000000000000000000000000000600052602160045260246000fd5b61316380620002b46000396000f3fe608060405234801561001057600080fd5b50600436106101215760003560e01c8063742b7b8d116100ad578063c0d8003311610071578063c0d80033146102e5578063db00d4d514610301578063dc31791214610331578063de29278914610361578063dea777831461037f57610121565b8063742b7b8d14610241578063807896d51461024b5780638099dff91461027b57806395071740146102ab578063be0dc4b7146102b557610121565b80634585e33b116100f45780634585e33b146101c2578063494c8cd2146101de57806354fa31a3146101fc57806366470665146102065780636e04ff0d1461021057610121565b80630cf0a267146101265780630d085b77146101565780632774e8b314610174578063378aa701146101a4575b600080fd5b610140600480360381019061013b9190611fcd565b61039d565b60405161014d9190612093565b60405180910390f35b61015e610442565b60405161016b91906120c4565b60405180910390f35b61018e6004803603810190610189919061213d565b610453565b60405161019b9190612185565b60405180910390f35b6101ac6104a9565b6040516101b99190612217565b60405180910390f35b6101dc60048036038101906101d79190612297565b6104c0565b005b6101e661063f565b6040516101f39190612093565b60405180910390f35b6102046106d1565b005b61020e610edb565b005b61022a60048036038101906102259190612297565b6110cb565b604051610238929190612339565b60405180910390f35b61024961117d565b005b61026560048036038101906102609190611fcd565b611313565b6040516102729190612185565b60405180910390f35b61029560048036038101906102909190611fcd565b61175b565b6040516102a291906120c4565b60405180910390f35b6102b36117da565b005b6102cf60048036038101906102ca9190612499565b61194b565b6040516102dc91906120c4565b60405180910390f35b6102ff60048036038101906102fa9190612511565b611cc2565b005b61031b60048036038101906103169190612511565b611cdc565b6040516103289190612185565b60405180910390f35b61034b6004803603810190610346919061213d565b611d11565b6040516103589190612185565b60405180910390f35b610369611d67565b6040516103769190612618565b60405180910390f35b610387611e9d565b6040516103949190612185565b60405180910390f35b60606015600083815260200190815260200160002080546103bd90612669565b80601f01602080910402602001604051908101604052809291908181526020018280546103e990612669565b80156104365780601f1061040b57610100808354040283529160200191610436565b820191906000526020600020905b81548152906001019060200180831161041957829003601f168201915b50505050509050919050565b600061044e6001611eb4565b905090565b6000600f60008373ffffffffffffffffffffffffffffffffffffffff1673ffffffffffffffffffffffffffffffffffffffff16815260200190815260200160002060009054906101000a900460ff169050919050565b6000600260009054906101000a900460ff16905090565b600160038111156104d4576104d36121a0565b5b600260009054906101000a900460ff1660038111156104f6576104f56121a0565b5b1415610583576004546005544261050d91906126ca565b111561057e5760028060006101000a81548160ff02191690836003811115610538576105376121a0565b5b0217905550426006819055507ff47401f49fc9f94dfb75c22e2622f166ae123da6e6998ba0a0fa11e1aeeb50d260065460405161057591906120c4565b60405180910390a15b61063b565b60026003811115610597576105966121a0565b5b600260009054906101000a900460ff1660038111156105b9576105b86121a0565b5b141561063a57600354600654426105d091906126ca565b1115610639576003600260006101000a81548160ff021916908360038111156105fc576105fb6121a0565b5b02179055507fbaf568cfe3e0f1f9d1e0e97658f129c75a38c15009706a253c7a2bd982be46d74260405161063091906120c4565b60405180910390a15b5b5b5050565b60606000805461064e90612669565b80601f016020809104026020016040519081016040528092919081815260200182805461067a90612669565b80156106c75780601f1061069c576101008083540402835291602001916106c7565b820191906000526020600020905b8154815290600101906020018083116106aa57829003601f168201915b5050505050905090565b600960009054906101000a900473ffffffffffffffffffffffffffffffffffffffff1673ffffffffffffffffffffffffffffffffffffffff16610712611ec2565b73ffffffffffffffffffffffffffffffffffffffff1614610768576040517f08c379a000000000000000000000000000000000000000000000000000000000815260040161075f90612770565b60405180910390fd5b60038081111561077b5761077a6121a0565b5b600260009054906101000a900460ff16600381111561079d5761079c6121a0565b5b146107dd576040517f08c379a00000000000000000000000000000000000000000000000000000000081526004016107d4906127dc565b60405180910390fd5b6000600a60009054906101000a900473ffffffffffffffffffffffffffffffffffffffff1673ffffffffffffffffffffffffffffffffffffffff1663227ef0616040518163ffffffff1660e01b815260040160006040518083038186803b15801561084757600080fd5b505afa15801561085b573d6000803e3d6000fd5b505050506040513d6000823e3d601f19601f8201168201806040525081019061088491906128d4565b905060005b81518111610ed757601360008383815181106108a8576108a761291d565b5b602002602001015173ffffffffffffffffffffffffffffffffffffffff1673ffffffffffffffffffffffffffffffffffffffff16815260200190815260200160002060009054906101000a900460ff16610ed257601260008383815181106109135761091261291d565b5b602002602001015173ffffffffffffffffffffffffffffffffffffffff1673ffffffffffffffffffffffffffffffffffffffff16815260200190815260200160002060009054906101000a900460ff1615610b3757670de0b6b3a7640000600a60009054906101000a900473ffffffffffffffffffffffffffffffffffffffff1673ffffffffffffffffffffffffffffffffffffffff166370a082318484815181106109c2576109c161291d565b5b60200260200101516040518263ffffffff1660e01b81526004016109e6919061295b565b60206040518083038186803b1580156109fe57600080fd5b505afa158015610a12573d6000803e3d6000fd5b505050506040513d601f19601f82011682018060405250810190610a36919061298b565b10610b3257600a60009054906101000a900473ffffffffffffffffffffffffffffffffffffffff1673ffffffffffffffffffffffffffffffffffffffff166323b872dd838381518110610a8c57610a8b61291d565b5b6020026020010151600860009054906101000a900473ffffffffffffffffffffffffffffffffffffffff16670de0b6b3a76400006040518463ffffffff1660e01b8152600401610ade939291906129fd565b602060405180830381600087803b158015610af857600080fd5b505af1158015610b0c573d6000803e3d6000fd5b505050506040513d601f19601f82011682018060405250810190610b309190612a60565b505b610ed1565b671bc16d674ec80000600a60009054906101000a900473ffffffffffffffffffffffffffffffffffffffff1673ffffffffffffffffffffffffffffffffffffffff166370a08231848481518110610b9157610b9061291d565b5b60200260200101516040518263ffffffff1660e01b8152600401610bb5919061295b565b60206040518083038186803b158015610bcd57600080fd5b505afa158015610be1573d6000803e3d6000fd5b505050506040513d601f19601f82011682018060405250810190610c05919061298b565b10610d0557600a60009054906101000a900473ffffffffffffffffffffffffffffffffffffffff1673ffffffffffffffffffffffffffffffffffffffff166323b872dd838381518110610c5b57610c5a61291d565b5b6020026020010151600860009054906101000a900473ffffffffffffffffffffffffffffffffffffffff16671bc16d674ec800006040518463ffffffff1660e01b8152600401610cad93929190612ac8565b602060405180830381600087803b158015610cc757600080fd5b505af1158015610cdb573d6000803e3d6000fd5b505050506040513d601f19601f82011682018060405250810190610cff9190612a60565b50610ed0565b670de0b6b3a7640000600a60009054906101000a900473ffffffffffffffffffffffffffffffffffffffff1673ffffffffffffffffffffffffffffffffffffffff166370a08231848481518110610d5f57610d5e61291d565b5b60200260200101516040518263ffffffff1660e01b8152600401610d83919061295b565b60206040518083038186803b158015610d9b57600080fd5b505afa158015610daf573d6000803e3d6000fd5b505050506040513d601f19601f82011682018060405250810190610dd3919061298b565b10610ecf57600a60009054906101000a900473ffffffffffffffffffffffffffffffffffffffff1673ffffffffffffffffffffffffffffffffffffffff166323b872dd838381518110610e2957610e2861291d565b5b6020026020010151600860009054906101000a900473ffffffffffffffffffffffffffffffffffffffff16670de0b6b3a76400006040518463ffffffff1660e01b8152600401610e7b939291906129fd565b602060405180830381600087803b158015610e9557600080fd5b505af1158015610ea9573d6000803e3d6000fd5b505050506040513d601f19601f82011682018060405250810190610ecd9190612a60565b505b5b5b5b610889565b5050565b600960009054906101000a900473ffffffffffffffffffffffffffffffffffffffff1673ffffffffffffffffffffffffffffffffffffffff16610f1c611ec2565b73ffffffffffffffffffffffffffffffffffffffff1614610f72576040517f08c379a0000000000000000000000000000000000000000000000000000000008152600401610f6990612770565b60405180910390fd5b60016003811115610f8657610f856121a0565b5b600260009054906101000a900460ff166003811115610fa857610fa76121a0565b5b14610fe8576040517f08c379a0000000000000000000000000000000000000000000000000000000008152600401610fdf90612b71565b60405180910390fd5b60026003811115610ffc57610ffb6121a0565b5b600260009054906101000a900460ff16600381111561101e5761101d6121a0565b5b141561105f576040517f08c379a000000000000000000000000000000000000000000000000000000000815260040161105690612bdd565b60405180910390fd5b60028060006101000a81548160ff02191690836003811115611084576110836121a0565b5b0217905550426006819055507ff47401f49fc9f94dfb75c22e2622f166ae123da6e6998ba0a0fa11e1aeeb50d26006546040516110c191906120c4565b60405180910390a1565b60006060600160038111156110e3576110e26121a0565b5b600260009054906101000a900460ff166003811115611105576111046121a0565b5b1415611124576004546005544261111c91906126ca565b119150611176565b60026003811115611138576111376121a0565b5b600260009054906101000a900460ff16600381111561115a576111596121a0565b5b1415611175576003546006544261117191906126ca565b1191505b5b9250929050565b600960009054906101000a900473ffffffffffffffffffffffffffffffffffffffff1673ffffffffffffffffffffffffffffffffffffffff166111be611ec2565b73ffffffffffffffffffffffffffffffffffffffff1614611214576040517f08c379a000000000000000000000000000000000000000000000000000000000815260040161120b90612770565b60405180910390fd5b60016003811115611228576112276121a0565b5b600260009054906101000a900460ff16600381111561124a576112496121a0565b5b141561128b576040517f08c379a000000000000000000000000000000000000000000000000000000000815260040161128290612c49565b60405180910390fd5b426005819055506001600260006101000a81548160ff021916908360038111156112b8576112b76121a0565b5b02179055506000601660006101000a81548160ff0219169083151502179055507f88bf67a6092931bb261c9090f6b6cc364e881fe2d7cad4c08d1d8a6f9c12683560055460405161130991906120c4565b60405180910390a1565b6000816011600082815260200190815260200160002060009054906101000a900460ff16611376576040517f08c379a000000000000000000000000000000000000000000000000000000000815260040161136d90612cb5565b60405180910390fd5b6002600381111561138a576113896121a0565b5b600260009054906101000a900460ff1660038111156113ac576113ab6121a0565b5b146113ec576040517f08c379a00000000000000000000000000000000000000000000000000000000081526004016113e390612d21565b60405180910390fd5b601360006113f8611ec2565b73ffffffffffffffffffffffffffffffffffffffff1673ffffffffffffffffffffffffffffffffffffffff16815260200190815260200160002060009054906101000a900460ff1615611480576040517f08c379a000000000000000000000000000000000000000000000000000000000815260040161147790612d8d565b60405180910390fd5b60006012600061148e611ec2565b73ffffffffffffffffffffffffffffffffffffffff1673ffffffffffffffffffffffffffffffffffffffff16815260200190815260200160002060009054906101000a900460ff1615611543576001601360006114e9611ec2565b73ffffffffffffffffffffffffffffffffffffffff1673ffffffffffffffffffffffffffffffffffffffff16815260200190815260200160002060006101000a81548160ff021916908315150217905550600290506115a7565b600160126000611551611ec2565b73ffffffffffffffffffffffffffffffffffffffff1673ffffffffffffffffffffffffffffffffffffffff16815260200190815260200160002060006101000a81548160ff021916908315150217905550600190505b600a60009054906101000a900473ffffffffffffffffffffffffffffffffffffffff1673ffffffffffffffffffffffffffffffffffffffff166323b872dd6115ed611ec2565b600860009054906101000a900473ffffffffffffffffffffffffffffffffffffffff16670de0b6b3a76400006040518463ffffffff1660e01b8152600401611637939291906129fd565b602060405180830381600087803b15801561165157600080fd5b505af1158015611665573d6000803e3d6000fd5b505050506040513d601f19601f820116820180604052508101906116899190612a60565b50600160106000868152602001908152602001600020546116aa9190612dad565b6010600086815260200190815260200160002081905550600181141561170f577f55b96455afb13ec0bbc6897d397dfeb5730349900e66d4eacb0f9ae0b6462cb8846116f4611ec2565b604051611702929190612e03565b60405180910390a1611750565b7f3efffae9bd4d25d7d683b9a8e677f1b1aa0d62181ff28de8692888a904ee3c7c84611739611ec2565b604051611747929190612e03565b60405180910390a15b600192505050919050565b6000816011600082815260200190815260200160002060009054906101000a900460ff166117be576040517f08c379a00000000000000000000000000000000000000000000000000000000081526004016117b590612cb5565b60405180910390fd5b6010600084815260200190815260200160002054915050919050565b600960009054906101000a900473ffffffffffffffffffffffffffffffffffffffff1673ffffffffffffffffffffffffffffffffffffffff1661181b611ec2565b73ffffffffffffffffffffffffffffffffffffffff1614611871576040517f08c379a000000000000000000000000000000000000000000000000000000000815260040161186890612770565b60405180910390fd5b60026003811115611885576118846121a0565b5b600260009054906101000a900460ff1660038111156118a7576118a66121a0565b5b146118e7576040517f08c379a00000000000000000000000000000000000000000000000000000000081526004016118de90612e78565b60405180910390fd5b6003600260006101000a81548160ff0219169083600381111561190d5761190c6121a0565b5b02179055507fbaf568cfe3e0f1f9d1e0e97658f129c75a38c15009706a253c7a2bd982be46d74260405161194191906120c4565b60405180910390a1565b600060016003811115611961576119606121a0565b5b600260009054906101000a900460ff166003811115611983576119826121a0565b5b146119c3576040517f08c379a00000000000000000000000000000000000000000000000000000000081526004016119ba90612ee4565b60405180910390fd5b600f60006119cf611ec2565b73ffffffffffffffffffffffffffffffffffffffff1673ffffffffffffffffffffffffffffffffffffffff16815260200190815260200160002060009054906101000a900460ff1615611a57576040517f08c379a0000000000000000000000000000000000000000000000000000000008152600401611a4e90612f50565b60405180910390fd5b601483604051611a679190612fac565b908152602001604051809103902060009054906101000a900460ff1615611ac3576040517f08c379a0000000000000000000000000000000000000000000000000000000008152600401611aba9061300f565b60405180910390fd5b611acd6001611eca565b6000611ad96001611eb4565b9050600754811115611b20576040517f08c379a0000000000000000000000000000000000000000000000000000000008152600401611b17906130a1565b60405180910390fd5b60004290506000604051806060016040528084815260200187815260200183815250905080600e6000858152602001908152602001600020600082015181600001556020820151816001019080519060200190611b7e929190611ee0565b50604082015181600201559050506001600f6000611b9a611ec2565b73ffffffffffffffffffffffffffffffffffffffff1673ffffffffffffffffffffffffffffffffffffffff16815260200190815260200160002060006101000a81548160ff0219169083151502179055506001601487604051611bfd9190612fac565b908152602001604051809103902060006101000a81548160ff02191690831515021790555060016011600085815260200190815260200160002060006101000a81548160ff02191690831515021790555084601560008581526020019081526020016000209080519060200190611c75929190611ee0565b507f1d6ee3df2c024fc0048966e3117ce35c33f61de40a736126b9de40a3f08c2c9183611ca0611ec2565b604051611cae929190612e03565b60405180910390a182935050505092915050565b8060009080519060200190611cd8929190611ee0565b5050565b6000601482604051611cee9190612fac565b908152602001604051809103902060009054906101000a900460ff169050919050565b6000601360008373ffffffffffffffffffffffffffffffffffffffff1673ffffffffffffffffffffffffffffffffffffffff16815260200190815260200160002060009054906101000a900460ff169050919050565b6060600380811115611d7c57611d7b6121a0565b5b600260009054906101000a900460ff166003811115611d9e57611d9d6121a0565b5b14611dde576040517f08c379a0000000000000000000000000000000000000000000000000000000008152600401611dd59061310d565b60405180910390fd5b6000611dea6001611eb4565b90506000600182611dfb9190612dad565b905060008167ffffffffffffffff811115611e1957611e1861236e565b5b604051908082528060200260200182016040528015611e475781602001602082028036833780820191505090505b50905060005b82811015611e93576010600082815260200190815260200160002054828281518110611e7c57611e7b61291d565b5b602002602001018181525050806001019050611e4d565b5080935050505090565b6000601660009054906101000a900460ff16905090565b600081600001549050919050565b600033905090565b6001816000016000828254019250508190555050565b828054611eec90612669565b90600052602060002090601f016020900481019282611f0e5760008555611f55565b82601f10611f2757805160ff1916838001178555611f55565b82800160010185558215611f55579182015b82811115611f54578251825591602001919060010190611f39565b5b509050611f629190611f66565b5090565b5b80821115611f7f576000816000905550600101611f67565b5090565b6000604051905090565b600080fd5b600080fd5b6000819050919050565b611faa81611f97565b8114611fb557600080fd5b50565b600081359050611fc781611fa1565b92915050565b600060208284031215611fe357611fe2611f8d565b5b6000611ff184828501611fb8565b91505092915050565b600081519050919050565b600082825260208201905092915050565b60005b83811015612034578082015181840152602081019050612019565b83811115612043576000848401525b50505050565b6000601f19601f8301169050919050565b600061206582611ffa565b61206f8185612005565b935061207f818560208601612016565b61208881612049565b840191505092915050565b600060208201905081810360008301526120ad818461205a565b905092915050565b6120be81611f97565b82525050565b60006020820190506120d960008301846120b5565b92915050565b600073ffffffffffffffffffffffffffffffffffffffff82169050919050565b600061210a826120df565b9050919050565b61211a816120ff565b811461212557600080fd5b50565b60008135905061213781612111565b92915050565b60006020828403121561215357612152611f8d565b5b600061216184828501612128565b91505092915050565b60008115159050919050565b61217f8161216a565b82525050565b600060208201905061219a6000830184612176565b92915050565b7f4e487b7100000000000000000000000000000000000000000000000000000000600052602160045260246000fd5b600481106121e0576121df6121a0565b5b50565b60008190506121f1826121cf565b919050565b6000612201826121e3565b9050919050565b612211816121f6565b82525050565b600060208201905061222c6000830184612208565b92915050565b600080fd5b600080fd5b600080fd5b60008083601f84011261225757612256612232565b5b8235905067ffffffffffffffff81111561227457612273612237565b5b6020830191508360018202830111156122905761228f61223c565b5b9250929050565b600080602083850312156122ae576122ad611f8d565b5b600083013567ffffffffffffffff8111156122cc576122cb611f92565b5b6122d885828601612241565b92509250509250929050565b600081519050919050565b600082825260208201905092915050565b600061230b826122e4565b61231581856122ef565b9350612325818560208601612016565b61232e81612049565b840191505092915050565b600060408201905061234e6000830185612176565b81810360208301526123608184612300565b90509392505050565b600080fd5b7f4e487b7100000000000000000000000000000000000000000000000000000000600052604160045260246000fd5b6123a682612049565b810181811067ffffffffffffffff821117156123c5576123c461236e565b5b80604052505050565b60006123d8611f83565b90506123e4828261239d565b919050565b600067ffffffffffffffff8211156124045761240361236e565b5b61240d82612049565b9050602081019050919050565b82818337600083830152505050565b600061243c612437846123e9565b6123ce565b90508281526020810184848401111561245857612457612369565b5b61246384828561241a565b509392505050565b600082601f8301126124805761247f612232565b5b8135612490848260208601612429565b91505092915050565b600080604083850312156124b0576124af611f8d565b5b600083013567ffffffffffffffff8111156124ce576124cd611f92565b5b6124da8582860161246b565b925050602083013567ffffffffffffffff8111156124fb576124fa611f92565b5b6125078582860161246b565b9150509250929050565b60006020828403121561252757612526611f8d565b5b600082013567ffffffffffffffff81111561254557612544611f92565b5b6125518482850161246b565b91505092915050565b600081519050919050565b600082825260208201905092915050565b6000819050602082019050919050565b61258f81611f97565b82525050565b60006125a18383612586565b60208301905092915050565b6000602082019050919050565b60006125c58261255a565b6125cf8185612565565b93506125da83612576565b8060005b8381101561260b5781516125f28882612595565b97506125fd836125ad565b9250506001810190506125de565b5085935050505092915050565b6000602082019050818103600083015261263281846125ba565b905092915050565b7f4e487b7100000000000000000000000000000000000000000000000000000000600052602260045260246000fd5b6000600282049050600182168061268157607f821691505b602082108114156126955761269461263a565b5b50919050565b7f4e487b7100000000000000000000000000000000000000000000000000000000600052601160045260246000fd5b60006126d582611f97565b91506126e083611f97565b9250828210156126f3576126f261269b565b5b828203905092915050565b7f6e6f7420617574686f72697a656420746f2063616c6c20746869732066756e6360008201527f74696f6e00000000000000000000000000000000000000000000000000000000602082015250565b600061275a602483612005565b9150612765826126fe565b604082019050919050565b600060208201905081810360008301526127898161274d565b9050919050565b7f766f74696e672070726f63657373206e6f7420646f6e65000000000000000000600082015250565b60006127c6601783612005565b91506127d182612790565b602082019050919050565b600060208201905081810360008301526127f5816127b9565b9050919050565b600067ffffffffffffffff8211156128175761281661236e565b5b602082029050602081019050919050565b60008151905061283781612111565b92915050565b600061285061284b846127fc565b6123ce565b905080838252602082019050602084028301858111156128735761287261223c565b5b835b8181101561289c57806128888882612828565b845260208401935050602081019050612875565b5050509392505050565b600082601f8301126128bb576128ba612232565b5b81516128cb84826020860161283d565b91505092915050565b6000602082840312156128ea576128e9611f8d565b5b600082015167ffffffffffffffff81111561290857612907611f92565b5b612914848285016128a6565b91505092915050565b7f4e487b7100000000000000000000000000000000000000000000000000000000600052603260045260246000fd5b612955816120ff565b82525050565b6000602082019050612970600083018461294c565b92915050565b60008151905061298581611fa1565b92915050565b6000602082840312156129a1576129a0611f8d565b5b60006129af84828501612976565b91505092915050565b6000819050919050565b6000819050919050565b60006129e76129e26129dd846129b8565b6129c2565b611f97565b9050919050565b6129f7816129cc565b82525050565b6000606082019050612a12600083018661294c565b612a1f602083018561294c565b612a2c60408301846129ee565b949350505050565b612a3d8161216a565b8114612a4857600080fd5b50565b600081519050612a5a81612a34565b92915050565b600060208284031215612a7657612a75611f8d565b5b6000612a8484828501612a4b565b91505092915050565b6000819050919050565b6000612ab2612aad612aa884612a8d565b6129c2565b611f97565b9050919050565b612ac281612a97565b82525050565b6000606082019050612add600083018661294c565b612aea602083018561294c565b612af76040830184612ab9565b949350505050565b7f2070726576696f7573207374617465206d75737420626520726563656976696e60008201527f672070726f706f73616c73000000000000000000000000000000000000000000602082015250565b6000612b5b602b83612005565b9150612b6682612aff565b604082019050919050565b60006020820190508181036000830152612b8a81612b4e565b9050919050565b7f63757272656e746c7920766f74696e6700000000000000000000000000000000600082015250565b6000612bc7601083612005565b9150612bd282612b91565b602082019050919050565b60006020820190508181036000830152612bf681612bba565b9050919050565b7f63757272656e746c7920726563656976696e672070726f706f73616c73000000600082015250565b6000612c33601d83612005565b9150612c3e82612bfd565b602082019050919050565b60006020820190508181036000830152612c6281612c26565b9050919050565b7f6964206973206e6f7420612070726f706f73616c000000000000000000000000600082015250565b6000612c9f601483612005565b9150612caa82612c69565b602082019050919050565b60006020820190508181036000830152612cce81612c92565b9050919050565b7f6e6f7420726563656976696e6720766f74657300000000000000000000000000600082015250565b6000612d0b601383612005565b9150612d1682612cd5565b602082019050919050565b60006020820190508181036000830152612d3a81612cfe565b9050919050565b7f796f752068617665207573656420757020796f757220766f7465730000000000600082015250565b6000612d77601b83612005565b9150612d8282612d41565b602082019050919050565b60006020820190508181036000830152612da681612d6a565b9050919050565b6000612db882611f97565b9150612dc383611f97565b9250827fffffffffffffffffffffffffffffffffffffffffffffffffffffffffffffffff03821115612df857612df761269b565b5b828201905092915050565b6000604082019050612e1860008301856120b5565b612e25602083018461294c565b9392505050565b7f6e6f7420766f74696e6700000000000000000000000000000000000000000000600082015250565b6000612e62600a83612005565b9150612e6d82612e2c565b602082019050919050565b60006020820190508181036000830152612e9181612e55565b9050919050565b7f6e6f7420726563656976696e672070726f706f73616c73000000000000000000600082015250565b6000612ece601783612005565b9150612ed982612e98565b602082019050919050565b60006020820190508181036000830152612efd81612ec1565b9050919050565b7f796f7520616c7265616479207375626d697474656420612070726f706f73616c600082015250565b6000612f3a602083612005565b9150612f4582612f04565b602082019050919050565b60006020820190508181036000830152612f6981612f2d565b9050919050565b600081905092915050565b6000612f8682611ffa565b612f908185612f70565b9350612fa0818560208601612016565b80840191505092915050565b6000612fb88284612f7b565b915081905092915050565b7f70726f706f73616c206e616d6520616c72656164792065786973747300000000600082015250565b6000612ff9601c83612005565b915061300482612fc3565b602082019050919050565b6000602082019050818103600083015261302881612fec565b9050919050565b7f6d6178696d756d206e756d62657273206f6620616c6c6f7765642070726f706f60008201527f73616c7320726561636865640000000000000000000000000000000000000000602082015250565b600061308b602c83612005565b91506130968261302f565b604082019050919050565b600060208201905081810360008301526130ba8161307e565b9050919050565b7f6e6f742070726f766964696e6720726573756c74730000000000000000000000600082015250565b60006130f7601583612005565b9150613102826130c1565b602082019050919050565b60006020820190508181036000830152613126816130ea565b905091905056fea2646970667358221220bcba6763315a6a5b2f3a516ef698bf6a48d30a6fc8de7822fd12d188650be85d64736f6c63430008090033",
  "linkReferences": {},
  "deployedLinkReferences": {}
}