{
  "_format": "hh-sol-artifact-1",
  "contractName": "NFTMarketplace",
  "sourceName": "contracts/MintingAndBuying.sol",
  "abi": [
    {
      "inputs": [
        {
          "internalType": "address",
          "name": "_treasury",
          "type": "address"
        }
      ],
      "stateMutability": "nonpayable",
      "type": "constructor"
    },
    {
      "inputs": [
        {
          "internalType": "uint256",
          "name": "tokenId",
          "type": "uint256"
        },
        {
          "internalType": "uint256",
          "name": "amount",
          "type": "uint256"
        }
      ],
      "name": "buyFraction",
      "outputs": [],
      "stateMutability": "payable",
      "type": "function"
    },
    {
      "inputs": [],
      "name": "checkIfIsLocked",
      "outputs": [
        {
          "internalType": "bool",
          "name": "",
          "type": "bool"
        }
      ],
      "stateMutability": "view",
      "type": "function"
    },
    {
      "inputs": [
        {
          "internalType": "uint256",
          "name": "tokenId",
          "type": "uint256"
        }
      ],
      "name": "getMyBalance",
      "outputs": [
        {
          "internalType": "uint256",
          "name": "",
          "type": "uint256"
        }
      ],
      "stateMutability": "view",
      "type": "function"
    },
    {
      "inputs": [
        {
          "internalType": "uint256",
          "name": "tokenId",
          "type": "uint256"
        }
      ],
      "name": "getNFTBalance",
      "outputs": [
        {
          "internalType": "uint256",
          "name": "",
          "type": "uint256"
        }
      ],
      "stateMutability": "view",
      "type": "function"
    },
    {
      "inputs": [
        {
          "internalType": "uint256",
          "name": "nftId",
          "type": "uint256"
        }
      ],
      "name": "getNFTPrice",
      "outputs": [
        {
          "internalType": "uint256",
          "name": "",
          "type": "uint256"
        }
      ],
      "stateMutability": "view",
      "type": "function"
    },
    {
      "inputs": [
        {
          "internalType": "uint256",
          "name": "nftId",
          "type": "uint256"
        }
      ],
      "name": "getNFTUrl",
      "outputs": [
        {
          "internalType": "string",
          "name": "",
          "type": "string"
        }
      ],
      "stateMutability": "view",
      "type": "function"
    },
    {
      "inputs": [],
      "name": "getTotalNftsMinted",
      "outputs": [
        {
          "internalType": "uint256",
          "name": "",
          "type": "uint256"
        }
      ],
      "stateMutability": "view",
      "type": "function"
    },
    {
      "inputs": [
        {
          "internalType": "address",
          "name": "",
          "type": "address"
        },
        {
          "internalType": "address",
          "name": "",
          "type": "address"
        },
        {
          "internalType": "uint256[]",
          "name": "",
          "type": "uint256[]"
        },
        {
          "internalType": "uint256[]",
          "name": "",
          "type": "uint256[]"
        },
        {
          "internalType": "bytes",
          "name": "",
          "type": "bytes"
        }
      ],
      "name": "onERC1155BatchReceived",
      "outputs": [
        {
          "internalType": "bytes4",
          "name": "",
          "type": "bytes4"
        }
      ],
      "stateMutability": "nonpayable",
      "type": "function"
    },
    {
      "inputs": [
        {
          "internalType": "address",
          "name": "",
          "type": "address"
        },
        {
          "internalType": "address",
          "name": "",
          "type": "address"
        },
        {
          "internalType": "uint256",
          "name": "",
          "type": "uint256"
        },
        {
          "internalType": "uint256",
          "name": "",
          "type": "uint256"
        },
        {
          "internalType": "bytes",
          "name": "",
          "type": "bytes"
        }
      ],
      "name": "onERC1155Received",
      "outputs": [
        {
          "internalType": "bytes4",
          "name": "",
          "type": "bytes4"
        }
      ],
      "stateMutability": "nonpayable",
      "type": "function"
    },
    {
      "inputs": [
        {
          "internalType": "uint256[]",
          "name": "prices",
          "type": "uint256[]"
        },
        {
          "internalType": "string[]",
          "name": "uris",
          "type": "string[]"
        }
      ],
      "name": "setNFTSUp",
      "outputs": [],
      "stateMutability": "nonpayable",
      "type": "function"
    },
    {
      "inputs": [
        {
          "internalType": "bytes4",
          "name": "interfaceId",
          "type": "bytes4"
        }
      ],
      "name": "supportsInterface",
      "outputs": [
        {
          "internalType": "bool",
          "name": "",
          "type": "bool"
        }
      ],
      "stateMutability": "view",
      "type": "function"
    },
    {
      "inputs": [],
      "name": "withDrawToTreasury",
      "outputs": [],
      "stateMutability": "nonpayable",
      "type": "function"
    }
  ],
  "bytecode": "0x6080604052620f42406006553480156200001857600080fd5b5060405162005ec438038062005ec483398181016040528101906200003e9190620001c5565b6040516200004c906200014d565b604051809103906000f08015801562000069573d6000803e3d6000fd5b50600760006101000a81548173ffffffffffffffffffffffffffffffffffffffff021916908373ffffffffffffffffffffffffffffffffffffffff160217905550336000806101000a81548173ffffffffffffffffffffffffffffffffffffffff021916908373ffffffffffffffffffffffffffffffffffffffff16021790555080600160006101000a81548173ffffffffffffffffffffffffffffffffffffffff021916908373ffffffffffffffffffffffffffffffffffffffff1602179055506000600360006101000a81548160ff02191690831515021790555050620001f7565b613f9d8062001f2783390190565b600080fd5b600073ffffffffffffffffffffffffffffffffffffffff82169050919050565b60006200018d8262000160565b9050919050565b6200019f8162000180565b8114620001ab57600080fd5b50565b600081519050620001bf8162000194565b92915050565b600060208284031215620001de57620001dd6200015b565b5b6000620001ee84828501620001ae565b91505092915050565b611d2080620002076000396000f3fe6080604052600436106100a75760003560e01c8063c1d6008311610064578063c1d600831461021a578063c705fc8714610245578063d40b021414610270578063ec6f26b91461028c578063f23a6e61146102a3578063f634402d146102e0576100a7565b806301ffc9a7146100ac57806302d24d94146100e957806324cc8555146101265780639297617914610163578063959e6f8e146101a0578063bc197c81146101dd575b600080fd5b3480156100b857600080fd5b506100d360048036038101906100ce9190610de5565b610309565b6040516100e09190610e2d565b60405180910390f35b3480156100f557600080fd5b50610110600480360381019061010b9190610e7e565b610383565b60405161011d9190610eba565b60405180910390f35b34801561013257600080fd5b5061014d60048036038101906101489190610e7e565b610438565b60405161015a9190610eba565b60405180910390f35b34801561016f57600080fd5b5061018a60048036038101906101859190610e7e565b6104ed565b6040516101979190610eba565b60405180910390f35b3480156101ac57600080fd5b506101c760048036038101906101c29190610e7e565b610515565b6040516101d49190610f6e565b60405180910390f35b3480156101e957600080fd5b5061020460048036038101906101ff91906111eb565b6105ce565b60405161021191906112c9565b60405180910390f35b34801561022657600080fd5b5061022f6105e3565b60405161023c9190610eba565b60405180910390f35b34801561025157600080fd5b5061025a6105f0565b6040516102679190610e2d565b60405180910390f35b61028a600480360381019061028591906112e4565b610607565b005b34801561029857600080fd5b506102a1610895565b005b3480156102af57600080fd5b506102ca60048036038101906102c59190611324565b61098e565b6040516102d791906112c9565b60405180910390f35b3480156102ec57600080fd5b506103076004803603810190610302919061153d565b6109a3565b005b60007f4e2312e0000000000000000000000000000000000000000000000000000000007bffffffffffffffffffffffffffffffffffffffffffffffffffffffff1916827bffffffffffffffffffffffffffffffffffffffffffffffffffffffff1916148061037c575061037b82610b5b565b5b9050919050565b6000600760009054906101000a900473ffffffffffffffffffffffffffffffffffffffff1673ffffffffffffffffffffffffffffffffffffffff1662fdd58e30846040518363ffffffff1660e01b81526004016103e19291906115c4565b60206040518083038186803b1580156103f957600080fd5b505afa15801561040d573d6000803e3d6000fd5b505050506040513d601f19601f820116820180604052508101906104319190611602565b9050919050565b6000600760009054906101000a900473ffffffffffffffffffffffffffffffffffffffff1673ffffffffffffffffffffffffffffffffffffffff1662fdd58e33846040518363ffffffff1660e01b81526004016104969291906115c4565b60206040518083038186803b1580156104ae57600080fd5b505afa1580156104c2573d6000803e3d6000fd5b505050506040513d601f19601f820116820180604052508101906104e69190611602565b9050919050565b6000600482815481106105035761050261162f565b5b90600052602060002001549050919050565b6060600760009054906101000a900473ffffffffffffffffffffffffffffffffffffffff1673ffffffffffffffffffffffffffffffffffffffff16630e89341c836040518263ffffffff1660e01b81526004016105729190610eba565b60006040518083038186803b15801561058a57600080fd5b505afa15801561059e573d6000803e3d6000fd5b505050506040513d6000823e3d601f19601f820116820180604052508101906105c791906116ce565b9050919050565b600063bc197c8160e01b905095945050505050565b6000600580549050905090565b6000600360009054906101000a900460ff16905090565b600b82101561064b576040517f08c379a000000000000000000000000000000000000000000000000000000000815260040161064290611763565b60405180910390fd5b6004600b8361065a91906117b2565b8154811061066b5761066a61162f565b5b906000526020600020015464e8d4a510008261068791906117e6565b34610692919061186f565b10156106d3576040517f08c379a00000000000000000000000000000000000000000000000000000000081526004016106ca90611912565b60405180910390fd5b80600760009054906101000a900473ffffffffffffffffffffffffffffffffffffffff1673ffffffffffffffffffffffffffffffffffffffff1662fdd58e30856040518363ffffffff1660e01b81526004016107309291906115c4565b60206040518083038186803b15801561074857600080fd5b505afa15801561075c573d6000803e3d6000fd5b505050506040513d601f19601f820116820180604052508101906107809190611602565b10156107c1576040517f08c379a00000000000000000000000000000000000000000000000000000000081526004016107b89061197e565b60405180910390fd5b600760009054906101000a900473ffffffffffffffffffffffffffffffffffffffff1673ffffffffffffffffffffffffffffffffffffffff1663f242432a303385670de0b6b3a76400008661081691906117e6565b6040518563ffffffff1660e01b815260040161083594939291906119d5565b600060405180830381600087803b15801561084f57600080fd5b505af1158015610863573d6000803e3d6000fd5b505050503460026000848152602001908152602001600020600082825461088a9190611a2d565b925050819055505050565b60008054906101000a900473ffffffffffffffffffffffffffffffffffffffff1673ffffffffffffffffffffffffffffffffffffffff163373ffffffffffffffffffffffffffffffffffffffff1614610923576040517f08c379a000000000000000000000000000000000000000000000000000000000815260040161091a90611acf565b60405180910390fd5b600160009054906101000a900473ffffffffffffffffffffffffffffffffffffffff1673ffffffffffffffffffffffffffffffffffffffff166108fc479081150290604051600060405180830381858888f1935050505015801561098b573d6000803e3d6000fd5b50565b600063f23a6e6160e01b905095945050505050565b60008054906101000a900473ffffffffffffffffffffffffffffffffffffffff1673ffffffffffffffffffffffffffffffffffffffff163373ffffffffffffffffffffffffffffffffffffffff1614610a31576040517f08c379a0000000000000000000000000000000000000000000000000000000008152600401610a2890611acf565b60405180910390fd5b600360009054906101000a900460ff1615610a81576040517f08c379a0000000000000000000000000000000000000000000000000000000008152600401610a7890611b3b565b60405180910390fd5b600760009054906101000a900473ffffffffffffffffffffffffffffffffffffffff1673ffffffffffffffffffffffffffffffffffffffff16632314329e826040518263ffffffff1660e01b8152600401610adc9190611c67565b600060405180830381600087803b158015610af657600080fd5b505af1158015610b0a573d6000803e3d6000fd5b505050508160049080519060200190610b24929190610bc5565b508060059080519060200190610b3b929190610c12565b506001600360006101000a81548160ff0219169083151502179055505050565b60007f01ffc9a7000000000000000000000000000000000000000000000000000000007bffffffffffffffffffffffffffffffffffffffffffffffffffffffff1916827bffffffffffffffffffffffffffffffffffffffffffffffffffffffff1916149050919050565b828054828255906000526020600020908101928215610c01579160200282015b82811115610c00578251825591602001919060010190610be5565b5b509050610c0e9190610c72565b5090565b828054828255906000526020600020908101928215610c61579160200282015b82811115610c60578251829080519060200190610c50929190610c8f565b5091602001919060010190610c32565b5b509050610c6e9190610d15565b5090565b5b80821115610c8b576000816000905550600101610c73565b5090565b828054610c9b90611cb8565b90600052602060002090601f016020900481019282610cbd5760008555610d04565b82601f10610cd657805160ff1916838001178555610d04565b82800160010185558215610d04579182015b82811115610d03578251825591602001919060010190610ce8565b5b509050610d119190610c72565b5090565b5b80821115610d355760008181610d2c9190610d39565b50600101610d16565b5090565b508054610d4590611cb8565b6000825580601f10610d575750610d76565b601f016020900490600052602060002090810190610d759190610c72565b5b50565b6000604051905090565b600080fd5b600080fd5b60007fffffffff0000000000000000000000000000000000000000000000000000000082169050919050565b610dc281610d8d565b8114610dcd57600080fd5b50565b600081359050610ddf81610db9565b92915050565b600060208284031215610dfb57610dfa610d83565b5b6000610e0984828501610dd0565b91505092915050565b60008115159050919050565b610e2781610e12565b82525050565b6000602082019050610e426000830184610e1e565b92915050565b6000819050919050565b610e5b81610e48565b8114610e6657600080fd5b50565b600081359050610e7881610e52565b92915050565b600060208284031215610e9457610e93610d83565b5b6000610ea284828501610e69565b91505092915050565b610eb481610e48565b82525050565b6000602082019050610ecf6000830184610eab565b92915050565b600081519050919050565b600082825260208201905092915050565b60005b83811015610f0f578082015181840152602081019050610ef4565b83811115610f1e576000848401525b50505050565b6000601f19601f8301169050919050565b6000610f4082610ed5565b610f4a8185610ee0565b9350610f5a818560208601610ef1565b610f6381610f24565b840191505092915050565b60006020820190508181036000830152610f888184610f35565b905092915050565b600073ffffffffffffffffffffffffffffffffffffffff82169050919050565b6000610fbb82610f90565b9050919050565b610fcb81610fb0565b8114610fd657600080fd5b50565b600081359050610fe881610fc2565b92915050565b600080fd5b7f4e487b7100000000000000000000000000000000000000000000000000000000600052604160045260246000fd5b61102b82610f24565b810181811067ffffffffffffffff8211171561104a57611049610ff3565b5b80604052505050565b600061105d610d79565b90506110698282611022565b919050565b600067ffffffffffffffff82111561108957611088610ff3565b5b602082029050602081019050919050565b600080fd5b60006110b26110ad8461106e565b611053565b905080838252602082019050602084028301858111156110d5576110d461109a565b5b835b818110156110fe57806110ea8882610e69565b8452602084019350506020810190506110d7565b5050509392505050565b600082601f83011261111d5761111c610fee565b5b813561112d84826020860161109f565b91505092915050565b600080fd5b600067ffffffffffffffff82111561115657611155610ff3565b5b61115f82610f24565b9050602081019050919050565b82818337600083830152505050565b600061118e6111898461113b565b611053565b9050828152602081018484840111156111aa576111a9611136565b5b6111b584828561116c565b509392505050565b600082601f8301126111d2576111d1610fee565b5b81356111e284826020860161117b565b91505092915050565b600080600080600060a0868803121561120757611206610d83565b5b600061121588828901610fd9565b955050602061122688828901610fd9565b945050604086013567ffffffffffffffff81111561124757611246610d88565b5b61125388828901611108565b935050606086013567ffffffffffffffff81111561127457611273610d88565b5b61128088828901611108565b925050608086013567ffffffffffffffff8111156112a1576112a0610d88565b5b6112ad888289016111bd565b9150509295509295909350565b6112c381610d8d565b82525050565b60006020820190506112de60008301846112ba565b92915050565b600080604083850312156112fb576112fa610d83565b5b600061130985828601610e69565b925050602061131a85828601610e69565b9150509250929050565b600080600080600060a086880312156113405761133f610d83565b5b600061134e88828901610fd9565b955050602061135f88828901610fd9565b945050604061137088828901610e69565b935050606061138188828901610e69565b925050608086013567ffffffffffffffff8111156113a2576113a1610d88565b5b6113ae888289016111bd565b9150509295509295909350565b600067ffffffffffffffff8211156113d6576113d5610ff3565b5b602082029050602081019050919050565b600067ffffffffffffffff82111561140257611401610ff3565b5b61140b82610f24565b9050602081019050919050565b600061142b611426846113e7565b611053565b90508281526020810184848401111561144757611446611136565b5b61145284828561116c565b509392505050565b600082601f83011261146f5761146e610fee565b5b813561147f848260208601611418565b91505092915050565b600061149b611496846113bb565b611053565b905080838252602082019050602084028301858111156114be576114bd61109a565b5b835b8181101561150557803567ffffffffffffffff8111156114e3576114e2610fee565b5b8086016114f0898261145a565b855260208501945050506020810190506114c0565b5050509392505050565b600082601f83011261152457611523610fee565b5b8135611534848260208601611488565b91505092915050565b6000806040838503121561155457611553610d83565b5b600083013567ffffffffffffffff81111561157257611571610d88565b5b61157e85828601611108565b925050602083013567ffffffffffffffff81111561159f5761159e610d88565b5b6115ab8582860161150f565b9150509250929050565b6115be81610fb0565b82525050565b60006040820190506115d960008301856115b5565b6115e66020830184610eab565b9392505050565b6000815190506115fc81610e52565b92915050565b60006020828403121561161857611617610d83565b5b6000611626848285016115ed565b91505092915050565b7f4e487b7100000000000000000000000000000000000000000000000000000000600052603260045260246000fd5b600061167161166c846113e7565b611053565b90508281526020810184848401111561168d5761168c611136565b5b611698848285610ef1565b509392505050565b600082601f8301126116b5576116b4610fee565b5b81516116c584826020860161165e565b91505092915050565b6000602082840312156116e4576116e3610d83565b5b600082015167ffffffffffffffff81111561170257611701610d88565b5b61170e848285016116a0565b91505092915050565b7f746f6b656e206e6f742061206672616374696f6e000000000000000000000000600082015250565b600061174d601483610ee0565b915061175882611717565b602082019050919050565b6000602082019050818103600083015261177c81611740565b9050919050565b7f4e487b7100000000000000000000000000000000000000000000000000000000600052601160045260246000fd5b60006117bd82610e48565b91506117c883610e48565b9250828210156117db576117da611783565b5b828203905092915050565b60006117f182610e48565b91506117fc83610e48565b9250817fffffffffffffffffffffffffffffffffffffffffffffffffffffffffffffffff048311821515161561183557611834611783565b5b828202905092915050565b7f4e487b7100000000000000000000000000000000000000000000000000000000600052601260045260246000fd5b600061187a82610e48565b915061188583610e48565b92508261189557611894611840565b5b828204905092915050565b7f70726f76696465642066756e6473206e6f7420656e6f75676820666f7220616d60008201527f6f756e7400000000000000000000000000000000000000000000000000000000602082015250565b60006118fc602483610ee0565b9150611907826118a0565b604082019050919050565b6000602082019050818103600083015261192b816118ef565b9050919050565b7f616d6f756e7420657863656564732072656d61696e696e6720746f6b656e7300600082015250565b6000611968601f83610ee0565b915061197382611932565b602082019050919050565b600060208201905081810360008301526119978161195b565b9050919050565b600082825260208201905092915050565b50565b60006119bf60008361199e565b91506119ca826119af565b600082019050919050565b600060a0820190506119ea60008301876115b5565b6119f760208301866115b5565b611a046040830185610eab565b611a116060830184610eab565b8181036080830152611a22816119b2565b905095945050505050565b6000611a3882610e48565b9150611a4383610e48565b9250827fffffffffffffffffffffffffffffffffffffffffffffffffffffffffffffffff03821115611a7857611a77611783565b5b828201905092915050565b7f6e6f20617574686f72697a656400000000000000000000000000000000000000600082015250565b6000611ab9600d83610ee0565b9150611ac482611a83565b602082019050919050565b60006020820190508181036000830152611ae881611aac565b9050919050565b7f616c726561647920736574557000000000000000000000000000000000000000600082015250565b6000611b25600d83610ee0565b9150611b3082611aef565b602082019050919050565b60006020820190508181036000830152611b5481611b18565b9050919050565b600081519050919050565b600082825260208201905092915050565b6000819050602082019050919050565b600082825260208201905092915050565b6000611ba382610ed5565b611bad8185611b87565b9350611bbd818560208601610ef1565b611bc681610f24565b840191505092915050565b6000611bdd8383611b98565b905092915050565b6000602082019050919050565b6000611bfd82611b5b565b611c078185611b66565b935083602082028501611c1985611b77565b8060005b85811015611c555784840389528151611c368582611bd1565b9450611c4183611be5565b925060208a01995050600181019050611c1d565b50829750879550505050505092915050565b60006020820190508181036000830152611c818184611bf2565b905092915050565b7f4e487b7100000000000000000000000000000000000000000000000000000000600052602260045260246000fd5b60006002820490506001821680611cd057607f821691505b60208210811415611ce457611ce3611c89565b5b5091905056fea26469706673582212206486ed91f2e4780efc90222804780edc0e1610ff61383eb933b59272f6ad56e864736f6c6343000809003360806040523480156200001157600080fd5b5060405180608001604052806048815260200162003f55604891396200003d81620003c260201b60201c565b5062000063336000600160405180602001604052806000815250620003de60201b60201c565b620000873360018060405180602001604052806000815250620003de60201b60201c565b620000ac336002600160405180602001604052806000815250620003de60201b60201c565b620000d1336003600160405180602001604052806000815250620003de60201b60201c565b620000f6336004600160405180602001604052806000815250620003de60201b60201c565b6200011b336005600160405180602001604052806000815250620003de60201b60201c565b62000140336006600160405180602001604052806000815250620003de60201b60201c565b62000165336007600160405180602001604052806000815250620003de60201b60201c565b6200018a336008600160405180602001604052806000815250620003de60201b60201c565b620001af336009600160405180602001604052806000815250620003de60201b60201c565b620001dd33600b69d3c21bcecceda100000060405180602001604052806000815250620003de60201b60201c565b6200020b33600c69d3c21bcecceda100000060405180602001604052806000815250620003de60201b60201c565b6200023933600d69d3c21bcecceda100000060405180602001604052806000815250620003de60201b60201c565b6200026733600e69d3c21bcecceda100000060405180602001604052806000815250620003de60201b60201c565b6200029533600f69d3c21bcecceda100000060405180602001604052806000815250620003de60201b60201c565b620002c333601069d3c21bcecceda100000060405180602001604052806000815250620003de60201b60201c565b620002f133601169d3c21bcecceda100000060405180602001604052806000815250620003de60201b60201c565b6200031f33601269d3c21bcecceda100000060405180602001604052806000815250620003de60201b60201c565b6200034d33601369d3c21bcecceda100000060405180602001604052806000815250620003de60201b60201c565b6200037b33601469d3c21bcecceda100000060405180602001604052806000815250620003de60201b60201c565b33600660006101000a81548173ffffffffffffffffffffffffffffffffffffffff021916908373ffffffffffffffffffffffffffffffffffffffff16021790555062001011565b8060029080519060200190620003da9291906200088c565b5050565b600073ffffffffffffffffffffffffffffffffffffffff168473ffffffffffffffffffffffffffffffffffffffff16141562000451576040517f08c379a00000000000000000000000000000000000000000000000000000000081526004016200044890620009c3565b60405180910390fd5b600062000463620005c660201b60201c565b905060006200047885620005ce60201b60201c565b905060006200048d85620005ce60201b60201c565b9050620004a6836000898585896200064f60201b60201c565b8460008088815260200190815260200160002060008973ffffffffffffffffffffffffffffffffffffffff1673ffffffffffffffffffffffffffffffffffffffff168152602001908152602001600020600082825462000507919062000a1e565b925050819055508673ffffffffffffffffffffffffffffffffffffffff16600073ffffffffffffffffffffffffffffffffffffffff168473ffffffffffffffffffffffffffffffffffffffff167fc3d58168c5ae7397731d063d5bbf3d657854427343f4c083240f7aacaa2d0f6289896040516200058792919062000a8c565b60405180910390a4620005a6836000898585896200065760201b60201c565b620005bd836000898989896200065f60201b60201c565b50505050505050565b600033905090565b60606000600167ffffffffffffffff811115620005f057620005ef62000ab9565b5b6040519080825280602002602001820160405280156200061f5781602001602082028036833780820191505090505b50905082816000815181106200063a576200063962000ae8565b5b60200260200101818152505080915050919050565b505050505050565b505050505050565b6200068b8473ffffffffffffffffffffffffffffffffffffffff166200086960201b62000d581760201c565b1562000861578373ffffffffffffffffffffffffffffffffffffffff1663f23a6e6187878686866040518663ffffffff1660e01b8152600401620006d495949392919062000c00565b602060405180830381600087803b158015620006ef57600080fd5b505af19250505080156200072357506040513d601f19601f8201168201806040525081019062000720919062000cd0565b60015b620007d5576200073262000d0f565b806308c379a014156200079657506200074a62000d6a565b8062000757575062000798565b806040517f08c379a00000000000000000000000000000000000000000000000000000000081526004016200078d919062000e58565b60405180910390fd5b505b6040517f08c379a0000000000000000000000000000000000000000000000000000000008152600401620007cc9062000ef2565b60405180910390fd5b63f23a6e6160e01b7bffffffffffffffffffffffffffffffffffffffffffffffffffffffff1916817bffffffffffffffffffffffffffffffffffffffffffffffffffffffff1916146200085f576040517f08c379a0000000000000000000000000000000000000000000000000000000008152600401620008569062000f8a565b60405180910390fd5b505b505050505050565b6000808273ffffffffffffffffffffffffffffffffffffffff163b119050919050565b8280546200089a9062000fdb565b90600052602060002090601f016020900481019282620008be57600085556200090a565b82601f10620008d957805160ff19168380011785556200090a565b828001600101855582156200090a579182015b8281111562000909578251825591602001919060010190620008ec565b5b5090506200091991906200091d565b5090565b5b80821115620009385760008160009055506001016200091e565b5090565b600082825260208201905092915050565b7f455243313135353a206d696e7420746f20746865207a65726f2061646472657360008201527f7300000000000000000000000000000000000000000000000000000000000000602082015250565b6000620009ab6021836200093c565b9150620009b8826200094d565b604082019050919050565b60006020820190508181036000830152620009de816200099c565b9050919050565b6000819050919050565b7f4e487b7100000000000000000000000000000000000000000000000000000000600052601160045260246000fd5b600062000a2b82620009e5565b915062000a3883620009e5565b9250827fffffffffffffffffffffffffffffffffffffffffffffffffffffffffffffffff0382111562000a705762000a6f620009ef565b5b828201905092915050565b62000a8681620009e5565b82525050565b600060408201905062000aa3600083018562000a7b565b62000ab2602083018462000a7b565b9392505050565b7f4e487b7100000000000000000000000000000000000000000000000000000000600052604160045260246000fd5b7f4e487b7100000000000000000000000000000000000000000000000000000000600052603260045260246000fd5b600073ffffffffffffffffffffffffffffffffffffffff82169050919050565b600062000b448262000b17565b9050919050565b62000b568162000b37565b82525050565b600081519050919050565b600082825260208201905092915050565b60005b8381101562000b9857808201518184015260208101905062000b7b565b8381111562000ba8576000848401525b50505050565b6000601f19601f8301169050919050565b600062000bcc8262000b5c565b62000bd8818562000b67565b935062000bea81856020860162000b78565b62000bf58162000bae565b840191505092915050565b600060a08201905062000c17600083018862000b4b565b62000c26602083018762000b4b565b62000c35604083018662000a7b565b62000c44606083018562000a7b565b818103608083015262000c58818462000bbf565b90509695505050505050565b6000604051905090565b600080fd5b60007fffffffff0000000000000000000000000000000000000000000000000000000082169050919050565b62000caa8162000c73565b811462000cb657600080fd5b50565b60008151905062000cca8162000c9f565b92915050565b60006020828403121562000ce95762000ce862000c6e565b5b600062000cf98482850162000cb9565b91505092915050565b60008160e01c9050919050565b600060033d111562000d315760046000803e62000d2e60005162000d02565b90505b90565b62000d3f8262000bae565b810181811067ffffffffffffffff8211171562000d615762000d6062000ab9565b5b80604052505050565b600060443d101562000d7c5762000e09565b62000d8662000c64565b60043d036004823e80513d602482011167ffffffffffffffff8211171562000db057505062000e09565b808201805167ffffffffffffffff81111562000dd0575050505062000e09565b80602083010160043d03850181111562000def57505050505062000e09565b62000e008260200185018662000d34565b82955050505050505b90565b600081519050919050565b600062000e248262000e0c565b62000e3081856200093c565b935062000e4281856020860162000b78565b62000e4d8162000bae565b840191505092915050565b6000602082019050818103600083015262000e74818462000e17565b905092915050565b7f455243313135353a207472616e7366657220746f206e6f6e2d4552433131353560008201527f526563656976657220696d706c656d656e746572000000000000000000000000602082015250565b600062000eda6034836200093c565b915062000ee78262000e7c565b604082019050919050565b6000602082019050818103600083015262000f0d8162000ecb565b9050919050565b7f455243313135353a204552433131353552656365697665722072656a6563746560008201527f6420746f6b656e73000000000000000000000000000000000000000000000000602082015250565b600062000f726028836200093c565b915062000f7f8262000f14565b604082019050919050565b6000602082019050818103600083015262000fa58162000f63565b9050919050565b7f4e487b7100000000000000000000000000000000000000000000000000000000600052602260045260246000fd5b6000600282049050600182168062000ff457607f821691505b602082108114156200100b576200100a62000fac565b5b50919050565b612f3480620010216000396000f3fe608060405234801561001057600080fd5b50600436106101d95760003560e01c80636c8d8b9a11610104578063a6cc9c55116100a2578063e985e9c511610071578063e985e9c51461052a578063ee610a671461055a578063f17428f114610578578063f242432a14610596576101d9565b8063a6cc9c55146104b2578063b8bd40ba146104d0578063d24fa3a7146104ee578063d704012c1461050c576101d9565b806375becb1d116100de57806375becb1d1461043e578063862440e21461045c5780639c7a905614610478578063a22cb46514610496576101d9565b80636c8d8b9a146103e4578063700224411461040257806373b809f414610420576101d9565b8063207ead061161017c5780633b048b9e1161014b5780633b048b9e1461035a578063402c3076146103785780634e1273f4146103965780635347567f146103c6576101d9565b8063207ead06146102e65780632314329e146103045780632eb2c2d61461032057806333c51b971461033c576101d9565b80630e89341c116101b85780630e89341c1461025c578063115bce341461028c5780631f28e852146102aa57806320394e9c146102c8576101d9565b8062fdd58e146101de57806301ffc9a71461020e5780630d9999291461023e575b600080fd5b6101f860048036038101906101f39190611abb565b6105b2565b6040516102059190611b0a565b60405180910390f35b61022860048036038101906102239190611b7d565b61067b565b6040516102359190611bc5565b60405180910390f35b61024661075d565b6040516102539190611b0a565b60405180910390f35b61027660048036038101906102719190611be0565b610762565b6040516102839190611ca6565b60405180910390f35b610294610807565b6040516102a19190611b0a565b60405180910390f35b6102b261080c565b6040516102bf9190611b0a565b60405180910390f35b6102d0610811565b6040516102dd9190611b0a565b60405180910390f35b6102ee610816565b6040516102fb9190611b0a565b60405180910390f35b61031e60048036038101906103199190611ee3565b61081b565b005b61033a60048036038101906103359190612090565b610908565b005b6103446109a9565b6040516103519190611b0a565b60405180910390f35b6103626109ae565b60405161036f9190611b0a565b60405180910390f35b6103806109b3565b60405161038d9190611b0a565b60405180910390f35b6103b060048036038101906103ab9190612222565b6109b8565b6040516103bd9190612358565b60405180910390f35b6103ce610ad1565b6040516103db9190611b0a565b60405180910390f35b6103ec610ad6565b6040516103f99190611b0a565b60405180910390f35b61040a610adb565b6040516104179190611b0a565b60405180910390f35b610428610ae0565b6040516104359190611b0a565b60405180910390f35b610446610ae5565b6040516104539190611b0a565b60405180910390f35b6104766004803603810190610471919061237a565b610aea565b005b610480610bea565b60405161048d9190611b0a565b60405180910390f35b6104b060048036038101906104ab9190612402565b610bef565b005b6104ba610c05565b6040516104c79190611b0a565b60405180910390f35b6104d8610c0a565b6040516104e59190611b0a565b60405180910390f35b6104f6610c0f565b6040516105039190611b0a565b60405180910390f35b610514610c14565b6040516105219190611b0a565b60405180910390f35b610544600480360381019061053f9190612442565b610c19565b6040516105519190611bc5565b60405180910390f35b610562610cad565b60405161056f9190611b0a565b60405180910390f35b610580610cb2565b60405161058d9190611b0a565b60405180910390f35b6105b060048036038101906105ab9190612482565b610cb7565b005b60008073ffffffffffffffffffffffffffffffffffffffff168373ffffffffffffffffffffffffffffffffffffffff161415610623576040517f08c379a000000000000000000000000000000000000000000000000000000000815260040161061a9061258b565b60405180910390fd5b60008083815260200190815260200160002060008473ffffffffffffffffffffffffffffffffffffffff1673ffffffffffffffffffffffffffffffffffffffff16815260200190815260200160002054905092915050565b60007fd9b67a26000000000000000000000000000000000000000000000000000000007bffffffffffffffffffffffffffffffffffffffffffffffffffffffff1916827bffffffffffffffffffffffffffffffffffffffffffffffffffffffff1916148061074657507f0e89341c000000000000000000000000000000000000000000000000000000007bffffffffffffffffffffffffffffffffffffffffffffffffffffffff1916827bffffffffffffffffffffffffffffffffffffffffffffffffffffffff1916145b80610756575061075582610d7b565b5b9050919050565b600d81565b6060600560008381526020019081526020016000208054610782906125da565b80601f01602080910402602001604051908101604052809291908181526020018280546107ae906125da565b80156107fb5780601f106107d0576101008083540402835291602001916107fb565b820191906000526020600020905b8154815290600101906020018083116107de57829003601f168201915b50505050509050919050565b600981565b600e81565b601481565b600581565b600660009054906101000a900473ffffffffffffffffffffffffffffffffffffffff1673ffffffffffffffffffffffffffffffffffffffff163373ffffffffffffffffffffffffffffffffffffffff16146108ab576040517f08c379a00000000000000000000000000000000000000000000000000000000081526004016108a290612658565b60405180910390fd5b60005b8151811015610904578181815181106108ca576108c9612678565b5b60200260200101516005600083815260200190815260200160002090805190602001906108f8929190611970565b508060010190506108ae565b5050565b610910610de5565b73ffffffffffffffffffffffffffffffffffffffff168573ffffffffffffffffffffffffffffffffffffffff161480610956575061095585610950610de5565b610c19565b5b610995576040517f08c379a000000000000000000000000000000000000000000000000000000000815260040161098c90612719565b60405180910390fd5b6109a28585858585610ded565b5050505050565b600281565b600181565b601281565b606081518351146109fe576040517f08c379a00000000000000000000000000000000000000000000000000000000081526004016109f5906127ab565b60405180910390fd5b6000835167ffffffffffffffff811115610a1b57610a1a611ccd565b5b604051908082528060200260200182016040528015610a495781602001602082028036833780820191505090505b50905060005b8451811015610ac657610a96858281518110610a6e57610a6d612678565b5b6020026020010151858381518110610a8957610a88612678565b5b60200260200101516105b2565b828281518110610aa957610aa8612678565b5b60200260200101818152505080610abf906127fa565b9050610a4f565b508091505092915050565b600f81565b600681565b600781565b600b81565b600881565b600660009054906101000a900473ffffffffffffffffffffffffffffffffffffffff1673ffffffffffffffffffffffffffffffffffffffff163373ffffffffffffffffffffffffffffffffffffffff1614610b7a576040517f08c379a0000000000000000000000000000000000000000000000000000000008152600401610b7190612658565b60405180910390fd5b6000815114610bbe576040517f08c379a0000000000000000000000000000000000000000000000000000000008152600401610bb59061288f565b60405180910390fd5b80600560008481526020019081526020016000209080519060200190610be5929190611970565b505050565b601081565b610c01610bfa610de5565b838361110f565b5050565b600c81565b601181565b601381565b600481565b6000600160008473ffffffffffffffffffffffffffffffffffffffff1673ffffffffffffffffffffffffffffffffffffffff16815260200190815260200160002060008373ffffffffffffffffffffffffffffffffffffffff1673ffffffffffffffffffffffffffffffffffffffff16815260200190815260200160002060009054906101000a900460ff16905092915050565b600381565b600081565b610cbf610de5565b73ffffffffffffffffffffffffffffffffffffffff168573ffffffffffffffffffffffffffffffffffffffff161480610d055750610d0485610cff610de5565b610c19565b5b610d44576040517f08c379a0000000000000000000000000000000000000000000000000000000008152600401610d3b90612719565b60405180910390fd5b610d51858585858561127c565b5050505050565b6000808273ffffffffffffffffffffffffffffffffffffffff163b119050919050565b60007f01ffc9a7000000000000000000000000000000000000000000000000000000007bffffffffffffffffffffffffffffffffffffffffffffffffffffffff1916827bffffffffffffffffffffffffffffffffffffffffffffffffffffffff1916149050919050565b600033905090565b8151835114610e31576040517f08c379a0000000000000000000000000000000000000000000000000000000008152600401610e2890612921565b60405180910390fd5b600073ffffffffffffffffffffffffffffffffffffffff168473ffffffffffffffffffffffffffffffffffffffff161415610ea1576040517f08c379a0000000000000000000000000000000000000000000000000000000008152600401610e98906129b3565b60405180910390fd5b6000610eab610de5565b9050610ebb818787878787611518565b60005b845181101561106c576000858281518110610edc57610edb612678565b5b602002602001015190506000858381518110610efb57610efa612678565b5b60200260200101519050600080600084815260200190815260200160002060008b73ffffffffffffffffffffffffffffffffffffffff1673ffffffffffffffffffffffffffffffffffffffff16815260200190815260200160002054905081811015610f9c576040517f08c379a0000000000000000000000000000000000000000000000000000000008152600401610f9390612a45565b60405180910390fd5b81810360008085815260200190815260200160002060008c73ffffffffffffffffffffffffffffffffffffffff1673ffffffffffffffffffffffffffffffffffffffff168152602001908152602001600020819055508160008085815260200190815260200160002060008b73ffffffffffffffffffffffffffffffffffffffff1673ffffffffffffffffffffffffffffffffffffffff16815260200190815260200160002060008282546110519190612a65565b9250508190555050505080611065906127fa565b9050610ebe565b508473ffffffffffffffffffffffffffffffffffffffff168673ffffffffffffffffffffffffffffffffffffffff168273ffffffffffffffffffffffffffffffffffffffff167f4a39dc06d4c0dbc64b70af90fd698a233a518aa5d07e595d983b8c0526c8f7fb87876040516110e3929190612abb565b60405180910390a46110f9818787878787611520565b611107818787878787611528565b505050505050565b8173ffffffffffffffffffffffffffffffffffffffff168373ffffffffffffffffffffffffffffffffffffffff16141561117e576040517f08c379a000000000000000000000000000000000000000000000000000000000815260040161117590612b64565b60405180910390fd5b80600160008573ffffffffffffffffffffffffffffffffffffffff1673ffffffffffffffffffffffffffffffffffffffff16815260200190815260200160002060008473ffffffffffffffffffffffffffffffffffffffff1673ffffffffffffffffffffffffffffffffffffffff16815260200190815260200160002060006101000a81548160ff0219169083151502179055508173ffffffffffffffffffffffffffffffffffffffff168373ffffffffffffffffffffffffffffffffffffffff167f17307eab39ab6107e8899845ad3d59bd9653f200f220920489ca2b5937696c318360405161126f9190611bc5565b60405180910390a3505050565b600073ffffffffffffffffffffffffffffffffffffffff168473ffffffffffffffffffffffffffffffffffffffff1614156112ec576040517f08c379a00000000000000000000000000000000000000000000000000000000081526004016112e3906129b3565b60405180910390fd5b60006112f6610de5565b905060006113038561170f565b905060006113108561170f565b9050611320838989858589611518565b600080600088815260200190815260200160002060008a73ffffffffffffffffffffffffffffffffffffffff1673ffffffffffffffffffffffffffffffffffffffff168152602001908152602001600020549050858110156113b7576040517f08c379a00000000000000000000000000000000000000000000000000000000081526004016113ae90612a45565b60405180910390fd5b85810360008089815260200190815260200160002060008b73ffffffffffffffffffffffffffffffffffffffff1673ffffffffffffffffffffffffffffffffffffffff168152602001908152602001600020819055508560008089815260200190815260200160002060008a73ffffffffffffffffffffffffffffffffffffffff1673ffffffffffffffffffffffffffffffffffffffff168152602001908152602001600020600082825461146c9190612a65565b925050819055508773ffffffffffffffffffffffffffffffffffffffff168973ffffffffffffffffffffffffffffffffffffffff168573ffffffffffffffffffffffffffffffffffffffff167fc3d58168c5ae7397731d063d5bbf3d657854427343f4c083240f7aacaa2d0f628a8a6040516114e9929190612b84565b60405180910390a46114ff848a8a86868a611520565b61150d848a8a8a8a8a611789565b505050505050505050565b505050505050565b505050505050565b6115478473ffffffffffffffffffffffffffffffffffffffff16610d58565b15611707578373ffffffffffffffffffffffffffffffffffffffff1663bc197c8187878686866040518663ffffffff1660e01b815260040161158d959493929190612c11565b602060405180830381600087803b1580156115a757600080fd5b505af19250505080156115d857506040513d601f19601f820116820180604052508101906115d59190612c8e565b60015b61167e576115e4612cc8565b806308c379a0141561164157506115f9612cea565b806116045750611643565b806040517f08c379a00000000000000000000000000000000000000000000000000000000081526004016116389190611ca6565b60405180910390fd5b505b6040517f08c379a000000000000000000000000000000000000000000000000000000000815260040161167590612df2565b60405180910390fd5b63bc197c8160e01b7bffffffffffffffffffffffffffffffffffffffffffffffffffffffff1916817bffffffffffffffffffffffffffffffffffffffffffffffffffffffff191614611705576040517f08c379a00000000000000000000000000000000000000000000000000000000081526004016116fc90612e84565b60405180910390fd5b505b505050505050565b60606000600167ffffffffffffffff81111561172e5761172d611ccd565b5b60405190808252806020026020018201604052801561175c5781602001602082028036833780820191505090505b509050828160008151811061177457611773612678565b5b60200260200101818152505080915050919050565b6117a88473ffffffffffffffffffffffffffffffffffffffff16610d58565b15611968578373ffffffffffffffffffffffffffffffffffffffff1663f23a6e6187878686866040518663ffffffff1660e01b81526004016117ee959493929190612ea4565b602060405180830381600087803b15801561180857600080fd5b505af192505050801561183957506040513d601f19601f820116820180604052508101906118369190612c8e565b60015b6118df57611845612cc8565b806308c379a014156118a2575061185a612cea565b8061186557506118a4565b806040517f08c379a00000000000000000000000000000000000000000000000000000000081526004016118999190611ca6565b60405180910390fd5b505b6040517f08c379a00000000000000000000000000000000000000000000000000000000081526004016118d690612df2565b60405180910390fd5b63f23a6e6160e01b7bffffffffffffffffffffffffffffffffffffffffffffffffffffffff1916817bffffffffffffffffffffffffffffffffffffffffffffffffffffffff191614611966576040517f08c379a000000000000000000000000000000000000000000000000000000000815260040161195d90612e84565b60405180910390fd5b505b505050505050565b82805461197c906125da565b90600052602060002090601f01602090048101928261199e57600085556119e5565b82601f106119b757805160ff19168380011785556119e5565b828001600101855582156119e5579182015b828111156119e45782518255916020019190600101906119c9565b5b5090506119f291906119f6565b5090565b5b80821115611a0f5760008160009055506001016119f7565b5090565b6000604051905090565b600080fd5b600080fd5b600073ffffffffffffffffffffffffffffffffffffffff82169050919050565b6000611a5282611a27565b9050919050565b611a6281611a47565b8114611a6d57600080fd5b50565b600081359050611a7f81611a59565b92915050565b6000819050919050565b611a9881611a85565b8114611aa357600080fd5b50565b600081359050611ab581611a8f565b92915050565b60008060408385031215611ad257611ad1611a1d565b5b6000611ae085828601611a70565b9250506020611af185828601611aa6565b9150509250929050565b611b0481611a85565b82525050565b6000602082019050611b1f6000830184611afb565b92915050565b60007fffffffff0000000000000000000000000000000000000000000000000000000082169050919050565b611b5a81611b25565b8114611b6557600080fd5b50565b600081359050611b7781611b51565b92915050565b600060208284031215611b9357611b92611a1d565b5b6000611ba184828501611b68565b91505092915050565b60008115159050919050565b611bbf81611baa565b82525050565b6000602082019050611bda6000830184611bb6565b92915050565b600060208284031215611bf657611bf5611a1d565b5b6000611c0484828501611aa6565b91505092915050565b600081519050919050565b600082825260208201905092915050565b60005b83811015611c47578082015181840152602081019050611c2c565b83811115611c56576000848401525b50505050565b6000601f19601f8301169050919050565b6000611c7882611c0d565b611c828185611c18565b9350611c92818560208601611c29565b611c9b81611c5c565b840191505092915050565b60006020820190508181036000830152611cc08184611c6d565b905092915050565b600080fd5b7f4e487b7100000000000000000000000000000000000000000000000000000000600052604160045260246000fd5b611d0582611c5c565b810181811067ffffffffffffffff82111715611d2457611d23611ccd565b5b80604052505050565b6000611d37611a13565b9050611d438282611cfc565b919050565b600067ffffffffffffffff821115611d6357611d62611ccd565b5b602082029050602081019050919050565b600080fd5b600080fd5b600067ffffffffffffffff821115611d9957611d98611ccd565b5b611da282611c5c565b9050602081019050919050565b82818337600083830152505050565b6000611dd1611dcc84611d7e565b611d2d565b905082815260208101848484011115611ded57611dec611d79565b5b611df8848285611daf565b509392505050565b600082601f830112611e1557611e14611cc8565b5b8135611e25848260208601611dbe565b91505092915050565b6000611e41611e3c84611d48565b611d2d565b90508083825260208201905060208402830185811115611e6457611e63611d74565b5b835b81811015611eab57803567ffffffffffffffff811115611e8957611e88611cc8565b5b808601611e968982611e00565b85526020850194505050602081019050611e66565b5050509392505050565b600082601f830112611eca57611ec9611cc8565b5b8135611eda848260208601611e2e565b91505092915050565b600060208284031215611ef957611ef8611a1d565b5b600082013567ffffffffffffffff811115611f1757611f16611a22565b5b611f2384828501611eb5565b91505092915050565b600067ffffffffffffffff821115611f4757611f46611ccd565b5b602082029050602081019050919050565b6000611f6b611f6684611f2c565b611d2d565b90508083825260208201905060208402830185811115611f8e57611f8d611d74565b5b835b81811015611fb75780611fa38882611aa6565b845260208401935050602081019050611f90565b5050509392505050565b600082601f830112611fd657611fd5611cc8565b5b8135611fe6848260208601611f58565b91505092915050565b600067ffffffffffffffff82111561200a57612009611ccd565b5b61201382611c5c565b9050602081019050919050565b600061203361202e84611fef565b611d2d565b90508281526020810184848401111561204f5761204e611d79565b5b61205a848285611daf565b509392505050565b600082601f83011261207757612076611cc8565b5b8135612087848260208601612020565b91505092915050565b600080600080600060a086880312156120ac576120ab611a1d565b5b60006120ba88828901611a70565b95505060206120cb88828901611a70565b945050604086013567ffffffffffffffff8111156120ec576120eb611a22565b5b6120f888828901611fc1565b935050606086013567ffffffffffffffff81111561211957612118611a22565b5b61212588828901611fc1565b925050608086013567ffffffffffffffff81111561214657612145611a22565b5b61215288828901612062565b9150509295509295909350565b600067ffffffffffffffff82111561217a57612179611ccd565b5b602082029050602081019050919050565b600061219e6121998461215f565b611d2d565b905080838252602082019050602084028301858111156121c1576121c0611d74565b5b835b818110156121ea57806121d68882611a70565b8452602084019350506020810190506121c3565b5050509392505050565b600082601f83011261220957612208611cc8565b5b813561221984826020860161218b565b91505092915050565b6000806040838503121561223957612238611a1d565b5b600083013567ffffffffffffffff81111561225757612256611a22565b5b612263858286016121f4565b925050602083013567ffffffffffffffff81111561228457612283611a22565b5b61229085828601611fc1565b9150509250929050565b600081519050919050565b600082825260208201905092915050565b6000819050602082019050919050565b6122cf81611a85565b82525050565b60006122e183836122c6565b60208301905092915050565b6000602082019050919050565b60006123058261229a565b61230f81856122a5565b935061231a836122b6565b8060005b8381101561234b57815161233288826122d5565b975061233d836122ed565b92505060018101905061231e565b5085935050505092915050565b6000602082019050818103600083015261237281846122fa565b905092915050565b6000806040838503121561239157612390611a1d565b5b600061239f85828601611aa6565b925050602083013567ffffffffffffffff8111156123c0576123bf611a22565b5b6123cc85828601611e00565b9150509250929050565b6123df81611baa565b81146123ea57600080fd5b50565b6000813590506123fc816123d6565b92915050565b6000806040838503121561241957612418611a1d565b5b600061242785828601611a70565b9250506020612438858286016123ed565b9150509250929050565b6000806040838503121561245957612458611a1d565b5b600061246785828601611a70565b925050602061247885828601611a70565b9150509250929050565b600080600080600060a0868803121561249e5761249d611a1d565b5b60006124ac88828901611a70565b95505060206124bd88828901611a70565b94505060406124ce88828901611aa6565b93505060606124df88828901611aa6565b925050608086013567ffffffffffffffff811115612500576124ff611a22565b5b61250c88828901612062565b9150509295509295909350565b7f455243313135353a2061646472657373207a65726f206973206e6f742061207660008201527f616c6964206f776e657200000000000000000000000000000000000000000000602082015250565b6000612575602a83611c18565b915061258082612519565b604082019050919050565b600060208201905081810360008301526125a481612568565b9050919050565b7f4e487b7100000000000000000000000000000000000000000000000000000000600052602260045260246000fd5b600060028204905060018216806125f257607f821691505b60208210811415612606576126056125ab565b5b50919050565b7f206e6f7420617574686f72697a65640000000000000000000000000000000000600082015250565b6000612642600f83611c18565b915061264d8261260c565b602082019050919050565b6000602082019050818103600083015261267181612635565b9050919050565b7f4e487b7100000000000000000000000000000000000000000000000000000000600052603260045260246000fd5b7f455243313135353a2063616c6c6572206973206e6f7420746f6b656e206f776e60008201527f6572206f7220617070726f766564000000000000000000000000000000000000602082015250565b6000612703602e83611c18565b915061270e826126a7565b604082019050919050565b60006020820190508181036000830152612732816126f6565b9050919050565b7f455243313135353a206163636f756e747320616e6420696473206c656e67746860008201527f206d69736d617463680000000000000000000000000000000000000000000000602082015250565b6000612795602983611c18565b91506127a082612739565b604082019050919050565b600060208201905081810360008301526127c481612788565b9050919050565b7f4e487b7100000000000000000000000000000000000000000000000000000000600052601160045260246000fd5b600061280582611a85565b91507fffffffffffffffffffffffffffffffffffffffffffffffffffffffffffffffff821415612838576128376127cb565b5b600182019050919050565b7f75726920616c7265616479206173736973676e65640000000000000000000000600082015250565b6000612879601583611c18565b915061288482612843565b602082019050919050565b600060208201905081810360008301526128a88161286c565b9050919050565b7f455243313135353a2069647320616e6420616d6f756e7473206c656e6774682060008201527f6d69736d61746368000000000000000000000000000000000000000000000000602082015250565b600061290b602883611c18565b9150612916826128af565b604082019050919050565b6000602082019050818103600083015261293a816128fe565b9050919050565b7f455243313135353a207472616e7366657220746f20746865207a65726f20616460008201527f6472657373000000000000000000000000000000000000000000000000000000602082015250565b600061299d602583611c18565b91506129a882612941565b604082019050919050565b600060208201905081810360008301526129cc81612990565b9050919050565b7f455243313135353a20696e73756666696369656e742062616c616e636520666f60008201527f72207472616e7366657200000000000000000000000000000000000000000000602082015250565b6000612a2f602a83611c18565b9150612a3a826129d3565b604082019050919050565b60006020820190508181036000830152612a5e81612a22565b9050919050565b6000612a7082611a85565b9150612a7b83611a85565b9250827fffffffffffffffffffffffffffffffffffffffffffffffffffffffffffffffff03821115612ab057612aaf6127cb565b5b828201905092915050565b60006040820190508181036000830152612ad581856122fa565b90508181036020830152612ae981846122fa565b90509392505050565b7f455243313135353a2073657474696e6720617070726f76616c2073746174757360008201527f20666f722073656c660000000000000000000000000000000000000000000000602082015250565b6000612b4e602983611c18565b9150612b5982612af2565b604082019050919050565b60006020820190508181036000830152612b7d81612b41565b9050919050565b6000604082019050612b996000830185611afb565b612ba66020830184611afb565b9392505050565b612bb681611a47565b82525050565b600081519050919050565b600082825260208201905092915050565b6000612be382612bbc565b612bed8185612bc7565b9350612bfd818560208601611c29565b612c0681611c5c565b840191505092915050565b600060a082019050612c266000830188612bad565b612c336020830187612bad565b8181036040830152612c4581866122fa565b90508181036060830152612c5981856122fa565b90508181036080830152612c6d8184612bd8565b90509695505050505050565b600081519050612c8881611b51565b92915050565b600060208284031215612ca457612ca3611a1d565b5b6000612cb284828501612c79565b91505092915050565b60008160e01c9050919050565b600060033d1115612ce75760046000803e612ce4600051612cbb565b90505b90565b600060443d1015612cfa57612d7d565b612d02611a13565b60043d036004823e80513d602482011167ffffffffffffffff82111715612d2a575050612d7d565b808201805167ffffffffffffffff811115612d485750505050612d7d565b80602083010160043d038501811115612d65575050505050612d7d565b612d7482602001850186611cfc565b82955050505050505b90565b7f455243313135353a207472616e7366657220746f206e6f6e2d4552433131353560008201527f526563656976657220696d706c656d656e746572000000000000000000000000602082015250565b6000612ddc603483611c18565b9150612de782612d80565b604082019050919050565b60006020820190508181036000830152612e0b81612dcf565b9050919050565b7f455243313135353a204552433131353552656365697665722072656a6563746560008201527f6420746f6b656e73000000000000000000000000000000000000000000000000602082015250565b6000612e6e602883611c18565b9150612e7982612e12565b604082019050919050565b60006020820190508181036000830152612e9d81612e61565b9050919050565b600060a082019050612eb96000830188612bad565b612ec66020830187612bad565b612ed36040830186611afb565b612ee06060830185611afb565b8181036080830152612ef28184612bd8565b9050969550505050505056fea2646970667358221220c3a1e27d560e53c1ed8acd18f022d5fd94d5eb22fa79da14fd52a573c38ecf6b64736f6c63430008090033676174657761792e70696e6174612e636c6f75642f697066732f516d5a7178736634704c5772555a4a54555846443971453858395a653561556e54426d634b414d6d6b746d373253",
  "linkReferences": {},
  "deployedLinkReferences": {}
}