{
  "_format": "hh-sol-artifact-1",
  "contractName": "MANI",
  "sourceName": "contracts/MANIToken.sol",
  "abi": [
    {
      "inputs": [
        {
          "internalType": "uint256",
          "name": "_registerationTimeFrame",
          "type": "uint256"
        }
      ],
      "stateMutability": "nonpayable",
      "type": "constructor"
    },
    {
      "anonymous": false,
      "inputs": [
        {
          "indexed": true,
          "internalType": "address",
          "name": "owner",
          "type": "address"
        },
        {
          "indexed": true,
          "internalType": "address",
          "name": "spender",
          "type": "address"
        },
        {
          "indexed": false,
          "internalType": "uint256",
          "name": "value",
          "type": "uint256"
        }
      ],
      "name": "Approval",
      "type": "event"
    },
    {
      "anonymous": false,
      "inputs": [
        {
          "indexed": true,
          "internalType": "address",
          "name": "from",
          "type": "address"
        },
        {
          "indexed": true,
          "internalType": "address",
          "name": "to",
          "type": "address"
        },
        {
          "indexed": false,
          "internalType": "uint256",
          "name": "value",
          "type": "uint256"
        }
      ],
      "name": "Transfer",
      "type": "event"
    },
    {
      "inputs": [
        {
          "internalType": "address",
          "name": "owner",
          "type": "address"
        },
        {
          "internalType": "address",
          "name": "spender",
          "type": "address"
        }
      ],
      "name": "allowance",
      "outputs": [
        {
          "internalType": "uint256",
          "name": "",
          "type": "uint256"
        }
      ],
      "stateMutability": "view",
      "type": "function"
    },
    {
      "inputs": [
        {
          "internalType": "address",
          "name": "spender",
          "type": "address"
        },
        {
          "internalType": "uint256",
          "name": "amount",
          "type": "uint256"
        }
      ],
      "name": "approve",
      "outputs": [
        {
          "internalType": "bool",
          "name": "",
          "type": "bool"
        }
      ],
      "stateMutability": "nonpayable",
      "type": "function"
    },
    {
      "inputs": [
        {
          "internalType": "address",
          "name": "account",
          "type": "address"
        }
      ],
      "name": "balanceOf",
      "outputs": [
        {
          "internalType": "uint256",
          "name": "",
          "type": "uint256"
        }
      ],
      "stateMutability": "view",
      "type": "function"
    },
    {
      "inputs": [
        {
          "internalType": "bytes",
          "name": "",
          "type": "bytes"
        }
      ],
      "name": "checkUpkeep",
      "outputs": [
        {
          "internalType": "bool",
          "name": "upkeepNeeded",
          "type": "bool"
        },
        {
          "internalType": "bytes",
          "name": "performData",
          "type": "bytes"
        }
      ],
      "stateMutability": "view",
      "type": "function"
    },
    {
      "inputs": [],
      "name": "decimals",
      "outputs": [
        {
          "internalType": "uint8",
          "name": "",
          "type": "uint8"
        }
      ],
      "stateMutability": "view",
      "type": "function"
    },
    {
      "inputs": [
        {
          "internalType": "address",
          "name": "spender",
          "type": "address"
        },
        {
          "internalType": "uint256",
          "name": "subtractedValue",
          "type": "uint256"
        }
      ],
      "name": "decreaseAllowance",
      "outputs": [
        {
          "internalType": "bool",
          "name": "",
          "type": "bool"
        }
      ],
      "stateMutability": "nonpayable",
      "type": "function"
    },
    {
      "inputs": [],
      "name": "getRegisteredAddresses",
      "outputs": [
        {
          "internalType": "address[]",
          "name": "",
          "type": "address[]"
        }
      ],
      "stateMutability": "view",
      "type": "function"
    },
    {
      "inputs": [],
      "name": "getState",
      "outputs": [
        {
          "internalType": "enum MANI.State",
          "name": "",
          "type": "uint8"
        }
      ],
      "stateMutability": "view",
      "type": "function"
    },
    {
      "inputs": [],
      "name": "getTotalNumberOfAirdrop",
      "outputs": [
        {
          "internalType": "uint256",
          "name": "",
          "type": "uint256"
        }
      ],
      "stateMutability": "view",
      "type": "function"
    },
    {
      "inputs": [
        {
          "internalType": "address",
          "name": "spender",
          "type": "address"
        },
        {
          "internalType": "uint256",
          "name": "addedValue",
          "type": "uint256"
        }
      ],
      "name": "increaseAllowance",
      "outputs": [
        {
          "internalType": "bool",
          "name": "",
          "type": "bool"
        }
      ],
      "stateMutability": "nonpayable",
      "type": "function"
    },
    {
      "inputs": [],
      "name": "manuallyStartAirDrop",
      "outputs": [],
      "stateMutability": "nonpayable",
      "type": "function"
    },
    {
      "inputs": [],
      "name": "name",
      "outputs": [
        {
          "internalType": "string",
          "name": "",
          "type": "string"
        }
      ],
      "stateMutability": "view",
      "type": "function"
    },
    {
      "inputs": [
        {
          "internalType": "bytes",
          "name": "",
          "type": "bytes"
        }
      ],
      "name": "performUpkeep",
      "outputs": [],
      "stateMutability": "nonpayable",
      "type": "function"
    },
    {
      "inputs": [],
      "name": "register",
      "outputs": [
        {
          "internalType": "bool",
          "name": "",
          "type": "bool"
        }
      ],
      "stateMutability": "nonpayable",
      "type": "function"
    },
    {
      "inputs": [
        {
          "internalType": "address",
          "name": "",
          "type": "address"
        }
      ],
      "name": "registered",
      "outputs": [
        {
          "internalType": "bool",
          "name": "",
          "type": "bool"
        }
      ],
      "stateMutability": "view",
      "type": "function"
    },
    {
      "inputs": [
        {
          "internalType": "address",
          "name": "admin",
          "type": "address"
        }
      ],
      "name": "setSuperAdmin",
      "outputs": [],
      "stateMutability": "nonpayable",
      "type": "function"
    },
    {
      "inputs": [
        {
          "internalType": "address",
          "name": "voteContractAddress",
          "type": "address"
        }
      ],
      "name": "setVoteContract",
      "outputs": [],
      "stateMutability": "nonpayable",
      "type": "function"
    },
    {
      "inputs": [],
      "name": "symbol",
      "outputs": [
        {
          "internalType": "string",
          "name": "",
          "type": "string"
        }
      ],
      "stateMutability": "view",
      "type": "function"
    },
    {
      "inputs": [],
      "name": "totalSupply",
      "outputs": [
        {
          "internalType": "uint256",
          "name": "",
          "type": "uint256"
        }
      ],
      "stateMutability": "view",
      "type": "function"
    },
    {
      "inputs": [
        {
          "internalType": "address",
          "name": "to",
          "type": "address"
        },
        {
          "internalType": "uint256",
          "name": "amount",
          "type": "uint256"
        }
      ],
      "name": "transfer",
      "outputs": [
        {
          "internalType": "bool",
          "name": "",
          "type": "bool"
        }
      ],
      "stateMutability": "nonpayable",
      "type": "function"
    },
    {
      "inputs": [
        {
          "internalType": "address",
          "name": "from",
          "type": "address"
        },
        {
          "internalType": "address",
          "name": "to",
          "type": "address"
        },
        {
          "internalType": "uint256",
          "name": "amount",
          "type": "uint256"
        }
      ],
      "name": "transferFrom",
      "outputs": [
        {
          "internalType": "bool",
          "name": "",
          "type": "bool"
        }
      ],
      "stateMutability": "nonpayable",
      "type": "function"
    },
    {
      "inputs": [],
      "name": "withdrawTokens",
      "outputs": [],
      "stateMutability": "nonpayable",
      "type": "function"
    }
  ],
  "bytecode": "0x60806040523480156200001157600080fd5b5060405162002dd238038062002dd28339818101604052810190620000379190620003f8565b6040518060400160405280600d81526020017f4d414e49464553544154494f4e000000000000000000000000000000000000008152506040518060400160405280600481526020017f4d414e49000000000000000000000000000000000000000000000000000000008152508160039080519060200190620000bb92919062000308565b508060049080519060200190620000d492919062000308565b505050620000f133671bc16d674ec800006200017d60201b60201c565b6000600d60006101000a81548160ff021916908360038111156200011a57620001196200042a565b5b02179055508060088190555062000136620002f660201b60201c565b600660006101000a81548173ffffffffffffffffffffffffffffffffffffffff021916908373ffffffffffffffffffffffffffffffffffffffff16021790555050620005fb565b600073ffffffffffffffffffffffffffffffffffffffff168273ffffffffffffffffffffffffffffffffffffffff161415620001f0576040517f08c379a0000000000000000000000000000000000000000000000000000000008152600401620001e790620004ba565b60405180910390fd5b6200020460008383620002fe60201b60201c565b80600260008282546200021891906200050b565b92505081905550806000808473ffffffffffffffffffffffffffffffffffffffff1673ffffffffffffffffffffffffffffffffffffffff16815260200190815260200160002060008282546200026f91906200050b565b925050819055508173ffffffffffffffffffffffffffffffffffffffff16600073ffffffffffffffffffffffffffffffffffffffff167fddf252ad1be2c89b69c2b068fc378daa952ba7f163c4a11628f55a4df523b3ef83604051620002d6919062000579565b60405180910390a3620002f2600083836200030360201b60201c565b5050565b600033905090565b505050565b505050565b8280546200031690620005c5565b90600052602060002090601f0160209004810192826200033a576000855562000386565b82601f106200035557805160ff191683800117855562000386565b8280016001018555821562000386579182015b828111156200038557825182559160200191906001019062000368565b5b50905062000395919062000399565b5090565b5b80821115620003b45760008160009055506001016200039a565b5090565b600080fd5b6000819050919050565b620003d281620003bd565b8114620003de57600080fd5b50565b600081519050620003f281620003c7565b92915050565b600060208284031215620004115762000410620003b8565b5b60006200042184828501620003e1565b91505092915050565b7f4e487b7100000000000000000000000000000000000000000000000000000000600052602160045260246000fd5b600082825260208201905092915050565b7f45524332303a206d696e7420746f20746865207a65726f206164647265737300600082015250565b6000620004a2601f8362000459565b9150620004af826200046a565b602082019050919050565b60006020820190508181036000830152620004d58162000493565b9050919050565b7f4e487b7100000000000000000000000000000000000000000000000000000000600052601160045260246000fd5b60006200051882620003bd565b91506200052583620003bd565b9250827fffffffffffffffffffffffffffffffffffffffffffffffffffffffffffffffff038211156200055d576200055c620004dc565b5b828201905092915050565b6200057381620003bd565b82525050565b600060208201905062000590600083018462000568565b92915050565b7f4e487b7100000000000000000000000000000000000000000000000000000000600052602260045260246000fd5b60006002820490506001821680620005de57607f821691505b60208210811415620005f557620005f462000596565b5b50919050565b6127c7806200060b6000396000f3fe608060405234801561001057600080fd5b50600436106101425760003560e01c8063620e9851116100b8578063a457c2d71161007c578063a457c2d71461036a578063a9059cbb1461039a578063ac6a13ad146103ca578063b2dd5c07146103e6578063bd07856214610416578063dd62ed3e1461042057610142565b8063620e9851146102c35780636e04ff0d146102e157806370a08231146103125780638d8f2adb1461034257806395d89b411461034c57610142565b80631aa3a0081161010a5780631aa3a008146101ed578063227ef0611461020b57806323b872dd14610229578063313ce5671461025957806339509351146102775780634585e33b146102a757610142565b806306fdde0314610147578063095ea7b314610165578063157000521461019557806318160ddd146101b15780631865c57d146101cf575b600080fd5b61014f610450565b60405161015c91906119a4565b60405180910390f35b61017f600480360381019061017a9190611a64565b6104e2565b60405161018c9190611abf565b60405180910390f35b6101af60048036038101906101aa9190611ada565b610505565b005b6101b96105e0565b6040516101c69190611b16565b60405180910390f35b6101d76105ea565b6040516101e49190611ba8565b60405180910390f35b6101f5610698565b6040516102029190611abf565b60405180910390f35b61021361093a565b6040516102209190611c81565b60405180910390f35b610243600480360381019061023e9190611ca3565b6109c8565b6040516102509190611abf565b60405180910390f35b6102616109f7565b60405161026e9190611d12565b60405180910390f35b610291600480360381019061028c9190611a64565b610a00565b60405161029e9190611abf565b60405180910390f35b6102c160048036038101906102bc9190611d92565b610a37565b005b6102cb610ab1565b6040516102d89190611b16565b60405180910390f35b6102fb60048036038101906102f69190611d92565b610b52565b604051610309929190611e34565b60405180910390f35b61032c60048036038101906103279190611ada565b610bce565b6040516103399190611b16565b60405180910390f35b61034a610c16565b005b610354610cea565b60405161036191906119a4565b60405180910390f35b610384600480360381019061037f9190611a64565b610d7c565b6040516103919190611abf565b60405180910390f35b6103b460048036038101906103af9190611a64565b610df3565b6040516103c19190611abf565b60405180910390f35b6103e460048036038101906103df9190611ada565b610e16565b005b61040060048036038101906103fb9190611ada565b610f3d565b60405161040d9190611abf565b60405180910390f35b61041e610f5d565b005b61043a60048036038101906104359190611e64565b6110ca565b6040516104479190611b16565b60405180910390f35b60606003805461045f90611ed3565b80601f016020809104026020016040519081016040528092919081815260200182805461048b90611ed3565b80156104d85780601f106104ad576101008083540402835291602001916104d8565b820191906000526020600020905b8154815290600101906020018083116104bb57829003601f168201915b5050505050905090565b6000806104ed611151565b90506104fa818585611159565b600191505092915050565b600660009054906101000a900473ffffffffffffffffffffffffffffffffffffffff1673ffffffffffffffffffffffffffffffffffffffff16610546611151565b73ffffffffffffffffffffffffffffffffffffffff161461059c576040517f08c379a000000000000000000000000000000000000000000000000000000000815260040161059390611f51565b60405180910390fd5b80600660006101000a81548173ffffffffffffffffffffffffffffffffffffffff021916908373ffffffffffffffffffffffffffffffffffffffff16021790555050565b6000600254905090565b6000600660009054906101000a900473ffffffffffffffffffffffffffffffffffffffff1673ffffffffffffffffffffffffffffffffffffffff1661062d611151565b73ffffffffffffffffffffffffffffffffffffffff1614610683576040517f08c379a000000000000000000000000000000000000000000000000000000000815260040161067a90611f51565b60405180910390fd5b600d60009054906101000a900460ff16905090565b60008073ffffffffffffffffffffffffffffffffffffffff16600560009054906101000a900473ffffffffffffffffffffffffffffffffffffffff1673ffffffffffffffffffffffffffffffffffffffff16141561072b576040517f08c379a000000000000000000000000000000000000000000000000000000000815260040161072290611fbd565b60405180910390fd5b6001600381111561073f5761073e611b31565b5b600d60009054906101000a900460ff16600381111561076157610760611b31565b5b146107a1576040517f08c379a000000000000000000000000000000000000000000000000000000000815260040161079890612029565b60405180910390fd5b600a60006107ad611151565b73ffffffffffffffffffffffffffffffffffffffff1673ffffffffffffffffffffffffffffffffffffffff16815260200190815260200160002060009054906101000a900460ff1615610835576040517f08c379a000000000000000000000000000000000000000000000000000000000815260040161082c90612095565b60405180910390fd5b600761083f611151565b9080600181540180825580915050600190039060005260206000200160009091909190916101000a81548173ffffffffffffffffffffffffffffffffffffffff021916908373ffffffffffffffffffffffffffffffffffffffff1602179055506001600a60006108ad611151565b73ffffffffffffffffffffffffffffffffffffffff1673ffffffffffffffffffffffffffffffffffffffff16815260200190815260200160002060006101000a81548160ff021916908315150217905550610932600560009054906101000a900473ffffffffffffffffffffffffffffffffffffffff16671bc16d674ec800006104e2565b506001905090565b606060078054806020026020016040519081016040528092919081815260200182805480156109be57602002820191906000526020600020905b8160009054906101000a900473ffffffffffffffffffffffffffffffffffffffff1673ffffffffffffffffffffffffffffffffffffffff1681526020019060010190808311610974575b5050505050905090565b6000806109d3611151565b90506109e0858285611324565b6109eb8585856113b0565b60019150509392505050565b60006012905090565b600080610a0b611151565b9050610a2c818585610a1d85896110ca565b610a2791906120e4565b611159565b600191505092915050565b60085460095442610a48919061213a565b1115610aad576002600d60006101000a81548160ff02191690836003811115610a7457610a73611b31565b5b0217905550610a81611631565b6003600d60006101000a81548160ff02191690836003811115610aa757610aa6611b31565b5b02179055505b5050565b6000600660009054906101000a900473ffffffffffffffffffffffffffffffffffffffff1673ffffffffffffffffffffffffffffffffffffffff16610af4611151565b73ffffffffffffffffffffffffffffffffffffffff1614610b4a576040517f08c379a0000000000000000000000000000000000000000000000000000000008152600401610b4190611f51565b60405180910390fd5b600c54905090565b6000606060016003811115610b6a57610b69611b31565b5b600d60009054906101000a900460ff166003811115610b8c57610b8b611b31565b5b1415610bc75760085460095442610ba3919061213a565b119150604051602001610bb5906121ba565b60405160208183030381529060405290505b9250929050565b60008060008373ffffffffffffffffffffffffffffffffffffffff1673ffffffffffffffffffffffffffffffffffffffff168152602001908152602001600020549050919050565b600660009054906101000a900473ffffffffffffffffffffffffffffffffffffffff1673ffffffffffffffffffffffffffffffffffffffff16610c57611151565b73ffffffffffffffffffffffffffffffffffffffff1614610cad576040517f08c379a0000000000000000000000000000000000000000000000000000000008152600401610ca490611f51565b60405180910390fd5b6000610cb830610bce565b9050610ce6600660009054906101000a900473ffffffffffffffffffffffffffffffffffffffff1682610df3565b5050565b606060048054610cf990611ed3565b80601f0160208091040260200160405190810160405280929190818152602001828054610d2590611ed3565b8015610d725780601f10610d4757610100808354040283529160200191610d72565b820191906000526020600020905b815481529060010190602001808311610d5557829003601f168201915b5050505050905090565b600080610d87611151565b90506000610d9582866110ca565b905083811015610dda576040517f08c379a0000000000000000000000000000000000000000000000000000000008152600401610dd19061224c565b60405180910390fd5b610de78286868403611159565b60019250505092915050565b600080610dfe611151565b9050610e0b8185856113b0565b600191505092915050565b600660009054906101000a900473ffffffffffffffffffffffffffffffffffffffff1673ffffffffffffffffffffffffffffffffffffffff16610e57611151565b73ffffffffffffffffffffffffffffffffffffffff1614610ead576040517f08c379a0000000000000000000000000000000000000000000000000000000008152600401610ea490611f51565b60405180910390fd5b80600560006101000a81548173ffffffffffffffffffffffffffffffffffffffff021916908373ffffffffffffffffffffffffffffffffffffffff160217905550426009819055506001600d60006101000a81548160ff02191690836003811115610f1b57610f1a611b31565b5b0217905550610f3930610f34610f2f611151565b610bce565b6104e2565b5050565b600a6020528060005260406000206000915054906101000a900460ff1681565b600660009054906101000a900473ffffffffffffffffffffffffffffffffffffffff1673ffffffffffffffffffffffffffffffffffffffff16610f9e611151565b73ffffffffffffffffffffffffffffffffffffffff1614610ff4576040517f08c379a0000000000000000000000000000000000000000000000000000000008152600401610feb90611f51565b60405180910390fd5b6001600381111561100857611007611b31565b5b600d60009054906101000a900460ff16600381111561102a57611029611b31565b5b1461106a576040517f08c379a0000000000000000000000000000000000000000000000000000000008152600401611061906122b8565b60405180910390fd5b6002600d60006101000a81548160ff021916908360038111156110905761108f611b31565b5b021790555061109d611631565b6003600d60006101000a81548160ff021916908360038111156110c3576110c2611b31565b5b0217905550565b6000600160008473ffffffffffffffffffffffffffffffffffffffff1673ffffffffffffffffffffffffffffffffffffffff16815260200190815260200160002060008373ffffffffffffffffffffffffffffffffffffffff1673ffffffffffffffffffffffffffffffffffffffff16815260200190815260200160002054905092915050565b600033905090565b600073ffffffffffffffffffffffffffffffffffffffff168373ffffffffffffffffffffffffffffffffffffffff1614156111c9576040517f08c379a00000000000000000000000000000000000000000000000000000000081526004016111c09061234a565b60405180910390fd5b600073ffffffffffffffffffffffffffffffffffffffff168273ffffffffffffffffffffffffffffffffffffffff161415611239576040517f08c379a0000000000000000000000000000000000000000000000000000000008152600401611230906123dc565b60405180910390fd5b80600160008573ffffffffffffffffffffffffffffffffffffffff1673ffffffffffffffffffffffffffffffffffffffff16815260200190815260200160002060008473ffffffffffffffffffffffffffffffffffffffff1673ffffffffffffffffffffffffffffffffffffffff168152602001908152602001600020819055508173ffffffffffffffffffffffffffffffffffffffff168373ffffffffffffffffffffffffffffffffffffffff167f8c5be1e5ebec7d5bd14f71427d1e84f3dd0314c0f7b2291e5b200ac8c7c3b925836040516113179190611b16565b60405180910390a3505050565b600061133084846110ca565b90507fffffffffffffffffffffffffffffffffffffffffffffffffffffffffffffffff81146113aa578181101561139c576040517f08c379a000000000000000000000000000000000000000000000000000000000815260040161139390612448565b60405180910390fd5b6113a98484848403611159565b5b50505050565b600073ffffffffffffffffffffffffffffffffffffffff168373ffffffffffffffffffffffffffffffffffffffff161415611420576040517f08c379a0000000000000000000000000000000000000000000000000000000008152600401611417906124da565b60405180910390fd5b600073ffffffffffffffffffffffffffffffffffffffff168273ffffffffffffffffffffffffffffffffffffffff161415611490576040517f08c379a00000000000000000000000000000000000000000000000000000000081526004016114879061256c565b60405180910390fd5b61149b8383836117a1565b60008060008573ffffffffffffffffffffffffffffffffffffffff1673ffffffffffffffffffffffffffffffffffffffff16815260200190815260200160002054905081811015611521576040517f08c379a0000000000000000000000000000000000000000000000000000000008152600401611518906125fe565b60405180910390fd5b8181036000808673ffffffffffffffffffffffffffffffffffffffff1673ffffffffffffffffffffffffffffffffffffffff16815260200190815260200160002081905550816000808573ffffffffffffffffffffffffffffffffffffffff1673ffffffffffffffffffffffffffffffffffffffff16815260200190815260200160002060008282546115b491906120e4565b925050819055508273ffffffffffffffffffffffffffffffffffffffff168473ffffffffffffffffffffffffffffffffffffffff167fddf252ad1be2c89b69c2b068fc378daa952ba7f163c4a11628f55a4df523b3ef846040516116189190611b16565b60405180910390a361162b8484846117a6565b50505050565b600b60009054906101000a900460ff1615611681576040517f08c379a00000000000000000000000000000000000000000000000000000000081526004016116789061266a565b60405180910390fd5b6002600381111561169557611694611b31565b5b600d60009054906101000a900460ff1660038111156116b7576116b6611b31565b5b146116f7576040517f08c379a00000000000000000000000000000000000000000000000000000000081526004016116ee906126d6565b60405180910390fd5b60005b600780549050811015611783576117576007828154811061171e5761171d6126f6565b5b9060005260206000200160009054906101000a900473ffffffffffffffffffffffffffffffffffffffff16671bc16d674ec800006117ab565b671bc16d674ec80000600c600082825461177191906120e4565b925050819055508060010190506116fa565b506001600b60006101000a81548160ff021916908315150217905550565b505050565b505050565b600073ffffffffffffffffffffffffffffffffffffffff168273ffffffffffffffffffffffffffffffffffffffff16141561181b576040517f08c379a000000000000000000000000000000000000000000000000000000000815260040161181290612771565b60405180910390fd5b611827600083836117a1565b806002600082825461183991906120e4565b92505081905550806000808473ffffffffffffffffffffffffffffffffffffffff1673ffffffffffffffffffffffffffffffffffffffff168152602001908152602001600020600082825461188e91906120e4565b925050819055508173ffffffffffffffffffffffffffffffffffffffff16600073ffffffffffffffffffffffffffffffffffffffff167fddf252ad1be2c89b69c2b068fc378daa952ba7f163c4a11628f55a4df523b3ef836040516118f39190611b16565b60405180910390a3611907600083836117a6565b5050565b600081519050919050565b600082825260208201905092915050565b60005b8381101561194557808201518184015260208101905061192a565b83811115611954576000848401525b50505050565b6000601f19601f8301169050919050565b60006119768261190b565b6119808185611916565b9350611990818560208601611927565b6119998161195a565b840191505092915050565b600060208201905081810360008301526119be818461196b565b905092915050565b600080fd5b600080fd5b600073ffffffffffffffffffffffffffffffffffffffff82169050919050565b60006119fb826119d0565b9050919050565b611a0b816119f0565b8114611a1657600080fd5b50565b600081359050611a2881611a02565b92915050565b6000819050919050565b611a4181611a2e565b8114611a4c57600080fd5b50565b600081359050611a5e81611a38565b92915050565b60008060408385031215611a7b57611a7a6119c6565b5b6000611a8985828601611a19565b9250506020611a9a85828601611a4f565b9150509250929050565b60008115159050919050565b611ab981611aa4565b82525050565b6000602082019050611ad46000830184611ab0565b92915050565b600060208284031215611af057611aef6119c6565b5b6000611afe84828501611a19565b91505092915050565b611b1081611a2e565b82525050565b6000602082019050611b2b6000830184611b07565b92915050565b7f4e487b7100000000000000000000000000000000000000000000000000000000600052602160045260246000fd5b60048110611b7157611b70611b31565b5b50565b6000819050611b8282611b60565b919050565b6000611b9282611b74565b9050919050565b611ba281611b87565b82525050565b6000602082019050611bbd6000830184611b99565b92915050565b600081519050919050565b600082825260208201905092915050565b6000819050602082019050919050565b611bf8816119f0565b82525050565b6000611c0a8383611bef565b60208301905092915050565b6000602082019050919050565b6000611c2e82611bc3565b611c388185611bce565b9350611c4383611bdf565b8060005b83811015611c74578151611c5b8882611bfe565b9750611c6683611c16565b925050600181019050611c47565b5085935050505092915050565b60006020820190508181036000830152611c9b8184611c23565b905092915050565b600080600060608486031215611cbc57611cbb6119c6565b5b6000611cca86828701611a19565b9350506020611cdb86828701611a19565b9250506040611cec86828701611a4f565b9150509250925092565b600060ff82169050919050565b611d0c81611cf6565b82525050565b6000602082019050611d276000830184611d03565b92915050565b600080fd5b600080fd5b600080fd5b60008083601f840112611d5257611d51611d2d565b5b8235905067ffffffffffffffff811115611d6f57611d6e611d32565b5b602083019150836001820283011115611d8b57611d8a611d37565b5b9250929050565b60008060208385031215611da957611da86119c6565b5b600083013567ffffffffffffffff811115611dc757611dc66119cb565b5b611dd385828601611d3c565b92509250509250929050565b600081519050919050565b600082825260208201905092915050565b6000611e0682611ddf565b611e108185611dea565b9350611e20818560208601611927565b611e298161195a565b840191505092915050565b6000604082019050611e496000830185611ab0565b8181036020830152611e5b8184611dfb565b90509392505050565b60008060408385031215611e7b57611e7a6119c6565b5b6000611e8985828601611a19565b9250506020611e9a85828601611a19565b9150509250929050565b7f4e487b7100000000000000000000000000000000000000000000000000000000600052602260045260246000fd5b60006002820490506001821680611eeb57607f821691505b60208210811415611eff57611efe611ea4565b5b50919050565b7f6e6f7420617574686f72697a6564000000000000000000000000000000000000600082015250565b6000611f3b600e83611916565b9150611f4682611f05565b602082019050919050565b60006020820190508181036000830152611f6a81611f2e565b9050919050565b7f72656769737465726174696f6e206e6f74206f70656e65640000000000000000600082015250565b6000611fa7601883611916565b9150611fb282611f71565b602082019050919050565b60006020820190508181036000830152611fd681611f9a565b9050919050565b7f72656769737465726174696f6e20636c6f736564000000000000000000000000600082015250565b6000612013601483611916565b915061201e82611fdd565b602082019050919050565b6000602082019050818103600083015261204281612006565b9050919050565b7f796f7520616c7265616479207265676973746572656400000000000000000000600082015250565b600061207f601683611916565b915061208a82612049565b602082019050919050565b600060208201905081810360008301526120ae81612072565b9050919050565b7f4e487b7100000000000000000000000000000000000000000000000000000000600052601160045260246000fd5b60006120ef82611a2e565b91506120fa83611a2e565b9250827fffffffffffffffffffffffffffffffffffffffffffffffffffffffffffffffff0382111561212f5761212e6120b5565b5b828201905092915050565b600061214582611a2e565b915061215083611a2e565b925082821015612163576121626120b5565b5b828203905092915050565b7f6d616e6900000000000000000000000000000000000000000000000000000000600082015250565b60006121a4600483611916565b91506121af8261216e565b602082019050919050565b600060208201905081810360008301526121d381612197565b9050919050565b7f45524332303a2064656372656173656420616c6c6f77616e63652062656c6f7760008201527f207a65726f000000000000000000000000000000000000000000000000000000602082015250565b6000612236602583611916565b9150612241826121da565b604082019050919050565b6000602082019050818103600083015261226581612229565b9050919050565b7f6e6f74207265676973746572696e670000000000000000000000000000000000600082015250565b60006122a2600f83611916565b91506122ad8261226c565b602082019050919050565b600060208201905081810360008301526122d181612295565b9050919050565b7f45524332303a20617070726f76652066726f6d20746865207a65726f2061646460008201527f7265737300000000000000000000000000000000000000000000000000000000602082015250565b6000612334602483611916565b915061233f826122d8565b604082019050919050565b6000602082019050818103600083015261236381612327565b9050919050565b7f45524332303a20617070726f766520746f20746865207a65726f20616464726560008201527f7373000000000000000000000000000000000000000000000000000000000000602082015250565b60006123c6602283611916565b91506123d18261236a565b604082019050919050565b600060208201905081810360008301526123f5816123b9565b9050919050565b7f45524332303a20696e73756666696369656e7420616c6c6f77616e6365000000600082015250565b6000612432601d83611916565b915061243d826123fc565b602082019050919050565b6000602082019050818103600083015261246181612425565b9050919050565b7f45524332303a207472616e736665722066726f6d20746865207a65726f20616460008201527f6472657373000000000000000000000000000000000000000000000000000000602082015250565b60006124c4602583611916565b91506124cf82612468565b604082019050919050565b600060208201905081810360008301526124f3816124b7565b9050919050565b7f45524332303a207472616e7366657220746f20746865207a65726f206164647260008201527f6573730000000000000000000000000000000000000000000000000000000000602082015250565b6000612556602383611916565b9150612561826124fa565b604082019050919050565b6000602082019050818103600083015261258581612549565b9050919050565b7f45524332303a207472616e7366657220616d6f756e742065786365656473206260008201527f616c616e63650000000000000000000000000000000000000000000000000000602082015250565b60006125e8602683611916565b91506125f38261258c565b604082019050919050565b60006020820190508181036000830152612617816125db565b9050919050565b7f616c72656164792061697264726f707065640000000000000000000000000000600082015250565b6000612654601283611916565b915061265f8261261e565b602082019050919050565b6000602082019050818103600083015261268381612647565b9050919050565b7f6e6f742061697264726f7070696e672063757272656e746c7900000000000000600082015250565b60006126c0601983611916565b91506126cb8261268a565b602082019050919050565b600060208201905081810360008301526126ef816126b3565b9050919050565b7f4e487b7100000000000000000000000000000000000000000000000000000000600052603260045260246000fd5b7f45524332303a206d696e7420746f20746865207a65726f206164647265737300600082015250565b600061275b601f83611916565b915061276682612725565b602082019050919050565b6000602082019050818103600083015261278a8161274e565b905091905056fea2646970667358221220b3e4e9b4effad3cfdf5da2132b090a6e60447b87679973c916cd16b5bb3faff964736f6c63430008090033",
  "linkReferences": {},
  "deployedLinkReferences": {}
}