{
  "_format": "hh-sol-artifact-1",
  "contractName": "Management",
  "sourceName": "contracts/Management.sol",
  "abi": [
    {
      "inputs": [
        {
          "internalType": "uint256",
          "name": "_maxNumbersOfProposals",
          "type": "uint256"
        },
        {
          "internalType": "address",
          "name": "token_Address",
          "type": "address"
        },
        {
          "internalType": "uint256",
          "name": "proposalTimeFrame",
          "type": "uint256"
        },
        {
          "internalType": "uint256",
          "name": "votingTimeFrame",
          "type": "uint256"
        }
      ],
      "stateMutability": "nonpayable",
      "type": "constructor"
    },
    {
      "anonymous": false,
      "inputs": [
        {
          "indexed": false,
          "internalType": "uint256[]",
          "name": "result",
          "type": "uint256[]"
        }
      ],
      "name": "finalResult",
      "type": "event"
    },
    {
      "anonymous": false,
      "inputs": [
        {
          "indexed": false,
          "internalType": "uint256",
          "name": "time",
          "type": "uint256"
        }
      ],
      "name": "proposalStarted",
      "type": "event"
    },
    {
      "anonymous": false,
      "inputs": [
        {
          "indexed": false,
          "internalType": "uint256",
          "name": "id",
          "type": "uint256"
        },
        {
          "indexed": false,
          "internalType": "address",
          "name": "sender",
          "type": "address"
        }
      ],
      "name": "proposalSubmitted",
      "type": "event"
    },
    {
      "anonymous": false,
      "inputs": [
        {
          "indexed": false,
          "internalType": "uint256",
          "name": "time",
          "type": "uint256"
        }
      ],
      "name": "resultReady",
      "type": "event"
    },
    {
      "anonymous": false,
      "inputs": [
        {
          "indexed": false,
          "internalType": "uint256",
          "name": "id",
          "type": "uint256"
        },
        {
          "indexed": false,
          "internalType": "address",
          "name": "sender",
          "type": "address"
        }
      ],
      "name": "userVoted",
      "type": "event"
    },
    {
      "anonymous": false,
      "inputs": [
        {
          "indexed": false,
          "internalType": "uint256",
          "name": "id",
          "type": "uint256"
        },
        {
          "indexed": false,
          "internalType": "address",
          "name": "sender",
          "type": "address"
        }
      ],
      "name": "userVotedAgain",
      "type": "event"
    },
    {
      "anonymous": false,
      "inputs": [
        {
          "indexed": false,
          "internalType": "uint256",
          "name": "time",
          "type": "uint256"
        }
      ],
      "name": "votingStarted",
      "type": "event"
    },
    {
      "inputs": [
        {
          "internalType": "string",
          "name": "_name",
          "type": "string"
        }
      ],
      "name": "checkIfNameExists",
      "outputs": [
        {
          "internalType": "bool",
          "name": "",
          "type": "bool"
        }
      ],
      "stateMutability": "view",
      "type": "function"
    },
    {
      "inputs": [
        {
          "internalType": "address",
          "name": "_address",
          "type": "address"
        }
      ],
      "name": "checkIfUserAlreadySubmittedProposal",
      "outputs": [
        {
          "internalType": "bool",
          "name": "",
          "type": "bool"
        }
      ],
      "stateMutability": "view",
      "type": "function"
    },
    {
      "inputs": [
        {
          "internalType": "bytes",
          "name": "",
          "type": "bytes"
        }
      ],
      "name": "checkUpkeep",
      "outputs": [
        {
          "internalType": "bool",
          "name": "upkeepNeeded",
          "type": "bool"
        },
        {
          "internalType": "bytes",
          "name": "",
          "type": "bytes"
        }
      ],
      "stateMutability": "view",
      "type": "function"
    },
    {
      "inputs": [],
      "name": "getCurrentState",
      "outputs": [
        {
          "internalType": "enum Management.State",
          "name": "",
          "type": "uint8"
        }
      ],
      "stateMutability": "view",
      "type": "function"
    },
    {
      "inputs": [],
      "name": "getResult",
      "outputs": [
        {
          "internalType": "uint256[]",
          "name": "",
          "type": "uint256[]"
        }
      ],
      "stateMutability": "view",
      "type": "function"
    },
    {
      "inputs": [
        {
          "internalType": "uint256",
          "name": "id",
          "type": "uint256"
        }
      ],
      "name": "getSingleProposalResult",
      "outputs": [
        {
          "internalType": "uint256",
          "name": "",
          "type": "uint256"
        }
      ],
      "stateMutability": "view",
      "type": "function"
    },
    {
      "inputs": [],
      "name": "getStateUrl",
      "outputs": [
        {
          "internalType": "string",
          "name": "",
          "type": "string"
        }
      ],
      "stateMutability": "view",
      "type": "function"
    },
    {
      "inputs": [],
      "name": "getlastProposal",
      "outputs": [
        {
          "internalType": "uint256",
          "name": "",
          "type": "uint256"
        }
      ],
      "stateMutability": "view",
      "type": "function"
    },
    {
      "inputs": [],
      "name": "manuallyEndVoting",
      "outputs": [],
      "stateMutability": "nonpayable",
      "type": "function"
    },
    {
      "inputs": [],
      "name": "manuallyStartVoting",
      "outputs": [],
      "stateMutability": "nonpayable",
      "type": "function"
    },
    {
      "inputs": [
        {
          "internalType": "bytes",
          "name": "",
          "type": "bytes"
        }
      ],
      "name": "performUpkeep",
      "outputs": [],
      "stateMutability": "nonpayable",
      "type": "function"
    },
    {
      "inputs": [],
      "name": "retrieveVoteTokens",
      "outputs": [],
      "stateMutability": "nonpayable",
      "type": "function"
    },
    {
      "inputs": [
        {
          "internalType": "string",
          "name": "newUrl",
          "type": "string"
        }
      ],
      "name": "setStateUrl",
      "outputs": [],
      "stateMutability": "nonpayable",
      "type": "function"
    },
    {
      "inputs": [],
      "name": "startReceivingProposals",
      "outputs": [],
      "stateMutability": "nonpayable",
      "type": "function"
    },
    {
      "inputs": [
        {
          "internalType": "string",
          "name": "_name",
          "type": "string"
        },
        {
          "internalType": "string",
          "name": "_category",
          "type": "string"
        },
        {
          "internalType": "string",
          "name": "_founders",
          "type": "string"
        },
        {
          "internalType": "uint256",
          "name": "_amount",
          "type": "uint256"
        }
      ],
      "name": "submitProposal",
      "outputs": [
        {
          "internalType": "uint256",
          "name": "",
          "type": "uint256"
        }
      ],
      "stateMutability": "nonpayable",
      "type": "function"
    },
    {
      "inputs": [
        {
          "internalType": "uint256",
          "name": "id",
          "type": "uint256"
        }
      ],
      "name": "voteProposal",
      "outputs": [
        {
          "internalType": "bool",
          "name": "",
          "type": "bool"
        }
      ],
      "stateMutability": "nonpayable",
      "type": "function"
    }
  ],
  "bytecode": "0x60806040523480156200001157600080fd5b50604051620032d3380380620032d3833981810160405281019062000037919062000203565b8360078190555082600a60006101000a81548173ffffffffffffffffffffffffffffffffffffffff021916908373ffffffffffffffffffffffffffffffffffffffff16021790555082600860006101000a81548173ffffffffffffffffffffffffffffffffffffffff021916908373ffffffffffffffffffffffffffffffffffffffff1602179055508060038190555081600481905550620000de6200015660201b60201c565b600960006101000a81548173ffffffffffffffffffffffffffffffffffffffff021916908373ffffffffffffffffffffffffffffffffffffffff1602179055506000600160006101000a81548160ff0219169083600381111562000147576200014662000275565b5b021790555050505050620002a4565b600033905090565b600080fd5b6000819050919050565b620001788162000163565b81146200018457600080fd5b50565b60008151905062000198816200016d565b92915050565b600073ffffffffffffffffffffffffffffffffffffffff82169050919050565b6000620001cb826200019e565b9050919050565b620001dd81620001be565b8114620001e957600080fd5b50565b600081519050620001fd81620001d2565b92915050565b6000806000806080858703121562000220576200021f6200015e565b5b6000620002308782880162000187565b94505060206200024387828801620001ec565b9350506040620002568782880162000187565b9250506060620002698782880162000187565b91505092959194509250565b7f4e487b7100000000000000000000000000000000000000000000000000000000600052602160045260246000fd5b61301f80620002b46000396000f3fe608060405234801561001057600080fd5b50600436106101005760003560e01c8063742b7b8d116100975780639507174011610066578063950717401461028a578063c0d8003314610294578063db00d4d5146102b0578063de292789146102e057610100565b8063742b7b8d146101f05780637ef729d1146101fa578063807896d51461022a5780638099dff91461025a57610100565b8063494c8cd2116100d3578063494c8cd21461018d57806354fa31a3146101ab57806366470665146101b55780636e04ff0d146101bf57610100565b80630d085b77146101055780632774e8b314610123578063378aa701146101535780634585e33b14610171575b600080fd5b61010d6102fe565b60405161011a9190611ea7565b60405180910390f35b61013d60048036038101906101389190611f34565b6103a6565b60405161014a9190611f7c565b60405180910390f35b61015b6103fc565b604051610168919061200e565b60405180910390f35b61018b6004803603810190610186919061208e565b610413565b005b610195610593565b6040516101a29190612174565b60405180910390f35b6101b3610625565b005b6101bd610e2f565b005b6101d960048036038101906101d4919061208e565b610ffa565b6040516101e79291906121eb565b60405180910390f35b6101f86110ac565b005b610214600480360381019061020f9190612377565b6111af565b6040516102219190611ea7565b60405180910390f35b610244600480360381019061023f9190612432565b6115c0565b6040516102519190611f7c565b60405180910390f35b610274600480360381019061026f9190612432565b611a08565b6040516102819190611ea7565b60405180910390f35b610292611a87565b005b6102ae60048036038101906102a9919061245f565b611c49565b005b6102ca60048036038101906102c5919061245f565b611c63565b6040516102d79190611f7c565b60405180910390f35b6102e8611c98565b6040516102f59190612566565b60405180910390f35b6000600960009054906101000a900473ffffffffffffffffffffffffffffffffffffffff1673ffffffffffffffffffffffffffffffffffffffff16610341611dbf565b73ffffffffffffffffffffffffffffffffffffffff1614610397576040517f08c379a000000000000000000000000000000000000000000000000000000000815260040161038e906125fa565b60405180910390fd5b6103a16000611dc7565b905090565b6000601360008373ffffffffffffffffffffffffffffffffffffffff1673ffffffffffffffffffffffffffffffffffffffff16815260200190815260200160002060009054906101000a900460ff169050919050565b6000600160009054906101000a900460ff16905090565b6001600381111561042757610426611f97565b5b600160009054906101000a900460ff16600381111561044957610448611f97565b5b14156104d757600454600554426104609190612649565b11156104d2576002600160006101000a81548160ff0219169083600381111561048c5761048b611f97565b5b0217905550426006819055507ff47401f49fc9f94dfb75c22e2622f166ae123da6e6998ba0a0fa11e1aeeb50d26006546040516104c99190611ea7565b60405180910390a15b61058f565b600260038111156104eb576104ea611f97565b5b600160009054906101000a900460ff16600381111561050d5761050c611f97565b5b141561058e57600354600654426105249190612649565b111561058d576003600160006101000a81548160ff021916908360038111156105505761054f611f97565b5b02179055507fbaf568cfe3e0f1f9d1e0e97658f129c75a38c15009706a253c7a2bd982be46d7426040516105849190611ea7565b60405180910390a15b5b5b5050565b6060600280546105a2906126ac565b80601f01602080910402602001604051908101604052809291908181526020018280546105ce906126ac565b801561061b5780601f106105f05761010080835404028352916020019161061b565b820191906000526020600020905b8154815290600101906020018083116105fe57829003601f168201915b5050505050905090565b600960009054906101000a900473ffffffffffffffffffffffffffffffffffffffff1673ffffffffffffffffffffffffffffffffffffffff16610666611dbf565b73ffffffffffffffffffffffffffffffffffffffff16146106bc576040517f08c379a00000000000000000000000000000000000000000000000000000000081526004016106b3906125fa565b60405180910390fd5b6003808111156106cf576106ce611f97565b5b600160009054906101000a900460ff1660038111156106f1576106f0611f97565b5b14610731576040517f08c379a00000000000000000000000000000000000000000000000000000000081526004016107289061272a565b60405180910390fd5b6000600a60009054906101000a900473ffffffffffffffffffffffffffffffffffffffff1673ffffffffffffffffffffffffffffffffffffffff1663227ef0616040518163ffffffff1660e01b815260040160006040518083038186803b15801561079b57600080fd5b505afa1580156107af573d6000803e3d6000fd5b505050506040513d6000823e3d601f19601f820116820180604052508101906107d89190612822565b905060005b81518111610e2b57601760008383815181106107fc576107fb61286b565b5b602002602001015173ffffffffffffffffffffffffffffffffffffffff1673ffffffffffffffffffffffffffffffffffffffff16815260200190815260200160002060009054906101000a900460ff16610e2657601660008383815181106108675761086661286b565b5b602002602001015173ffffffffffffffffffffffffffffffffffffffff1673ffffffffffffffffffffffffffffffffffffffff16815260200190815260200160002060009054906101000a900460ff1615610a8b57670de0b6b3a7640000600a60009054906101000a900473ffffffffffffffffffffffffffffffffffffffff1673ffffffffffffffffffffffffffffffffffffffff166370a082318484815181106109165761091561286b565b5b60200260200101516040518263ffffffff1660e01b815260040161093a91906128a9565b60206040518083038186803b15801561095257600080fd5b505afa158015610966573d6000803e3d6000fd5b505050506040513d601f19601f8201168201806040525081019061098a91906128d9565b10610a8657600a60009054906101000a900473ffffffffffffffffffffffffffffffffffffffff1673ffffffffffffffffffffffffffffffffffffffff166323b872dd8383815181106109e0576109df61286b565b5b6020026020010151600860009054906101000a900473ffffffffffffffffffffffffffffffffffffffff16670de0b6b3a76400006040518463ffffffff1660e01b8152600401610a329392919061294b565b602060405180830381600087803b158015610a4c57600080fd5b505af1158015610a60573d6000803e3d6000fd5b505050506040513d601f19601f82011682018060405250810190610a8491906129ae565b505b610e25565b671bc16d674ec80000600a60009054906101000a900473ffffffffffffffffffffffffffffffffffffffff1673ffffffffffffffffffffffffffffffffffffffff166370a08231848481518110610ae557610ae461286b565b5b60200260200101516040518263ffffffff1660e01b8152600401610b0991906128a9565b60206040518083038186803b158015610b2157600080fd5b505afa158015610b35573d6000803e3d6000fd5b505050506040513d601f19601f82011682018060405250810190610b5991906128d9565b10610c5957600a60009054906101000a900473ffffffffffffffffffffffffffffffffffffffff1673ffffffffffffffffffffffffffffffffffffffff166323b872dd838381518110610baf57610bae61286b565b5b6020026020010151600860009054906101000a900473ffffffffffffffffffffffffffffffffffffffff16671bc16d674ec800006040518463ffffffff1660e01b8152600401610c0193929190612a16565b602060405180830381600087803b158015610c1b57600080fd5b505af1158015610c2f573d6000803e3d6000fd5b505050506040513d601f19601f82011682018060405250810190610c5391906129ae565b50610e24565b670de0b6b3a7640000600a60009054906101000a900473ffffffffffffffffffffffffffffffffffffffff1673ffffffffffffffffffffffffffffffffffffffff166370a08231848481518110610cb357610cb261286b565b5b60200260200101516040518263ffffffff1660e01b8152600401610cd791906128a9565b60206040518083038186803b158015610cef57600080fd5b505afa158015610d03573d6000803e3d6000fd5b505050506040513d601f19601f82011682018060405250810190610d2791906128d9565b10610e2357600a60009054906101000a900473ffffffffffffffffffffffffffffffffffffffff1673ffffffffffffffffffffffffffffffffffffffff166323b872dd838381518110610d7d57610d7c61286b565b5b6020026020010151600860009054906101000a900473ffffffffffffffffffffffffffffffffffffffff16670de0b6b3a76400006040518463ffffffff1660e01b8152600401610dcf9392919061294b565b602060405180830381600087803b158015610de957600080fd5b505af1158015610dfd573d6000803e3d6000fd5b505050506040513d601f19601f82011682018060405250810190610e2191906129ae565b505b5b5b5b6107dd565b5050565b600960009054906101000a900473ffffffffffffffffffffffffffffffffffffffff1673ffffffffffffffffffffffffffffffffffffffff16610e70611dbf565b73ffffffffffffffffffffffffffffffffffffffff1614610ec6576040517f08c379a0000000000000000000000000000000000000000000000000000000008152600401610ebd906125fa565b60405180910390fd5b60016003811115610eda57610ed9611f97565b5b600160009054906101000a900460ff166003811115610efc57610efb611f97565b5b14610f3c576040517f08c379a0000000000000000000000000000000000000000000000000000000008152600401610f3390612a99565b60405180910390fd5b60045460055442610f4d9190612649565b11610f8d576040517f08c379a0000000000000000000000000000000000000000000000000000000008152600401610f8490612b05565b60405180910390fd5b6002600160006101000a81548160ff02191690836003811115610fb357610fb2611f97565b5b0217905550426006819055507ff47401f49fc9f94dfb75c22e2622f166ae123da6e6998ba0a0fa11e1aeeb50d2600654604051610ff09190611ea7565b60405180910390a1565b600060606001600381111561101257611011611f97565b5b600160009054906101000a900460ff16600381111561103457611033611f97565b5b1415611053576004546005544261104b9190612649565b1191506110a5565b6002600381111561106757611066611f97565b5b600160009054906101000a900460ff16600381111561108957611088611f97565b5b14156110a457600354600654426110a09190612649565b1191505b5b9250929050565b600960009054906101000a900473ffffffffffffffffffffffffffffffffffffffff1673ffffffffffffffffffffffffffffffffffffffff166110ed611dbf565b73ffffffffffffffffffffffffffffffffffffffff1614611143576040517f08c379a000000000000000000000000000000000000000000000000000000000815260040161113a906125fa565b60405180910390fd5b4260058190555060018060006101000a81548160ff0219169083600381111561116f5761116e611f97565b5b02179055507f88bf67a6092931bb261c9090f6b6cc364e881fe2d7cad4c08d1d8a6f9c1268356005546040516111a59190611ea7565b60405180910390a1565b6000600160038111156111c5576111c4611f97565b5b600160009054906101000a900460ff1660038111156111e7576111e6611f97565b5b14611227576040517f08c379a000000000000000000000000000000000000000000000000000000000815260040161121e90612a99565b60405180910390fd5b60136000611233611dbf565b73ffffffffffffffffffffffffffffffffffffffff1673ffffffffffffffffffffffffffffffffffffffff16815260200190815260200160002060009054906101000a900460ff16156112bb576040517f08c379a00000000000000000000000000000000000000000000000000000000081526004016112b290612b71565b60405180910390fd5b6018856040516112cb9190612bcd565b908152602001604051809103902060009054906101000a900460ff1615611327576040517f08c379a000000000000000000000000000000000000000000000000000000000815260040161131e90612c30565b60405180910390fd5b6113316000611dd5565b600061133d6000611dc7565b9050600754811115611384576040517f08c379a000000000000000000000000000000000000000000000000000000000815260040161137b90612cc2565b60405180910390fd5b600042905060006040518060e001604052808481526020018981526020018881526020018781526020018681526020016113bc611dbf565b73ffffffffffffffffffffffffffffffffffffffff1681526020018381525090508060126000858152602001908152602001600020600082015181600001556020820151816001019080519060200190611417929190611deb565b506040820151816002019080519060200190611434929190611deb565b506060820151816003019080519060200190611451929190611deb565b506080820151816004015560a08201518160050160006101000a81548173ffffffffffffffffffffffffffffffffffffffff021916908373ffffffffffffffffffffffffffffffffffffffff16021790555060c082015181600601559050506001601360006114be611dbf565b73ffffffffffffffffffffffffffffffffffffffff1673ffffffffffffffffffffffffffffffffffffffff16815260200190815260200160002060006101000a81548160ff02191690831515021790555060016018896040516115219190612bcd565b908152602001604051809103902060006101000a81548160ff02191690831515021790555060016015600085815260200190815260200160002060006101000a81548160ff0219169083151502179055507f1d6ee3df2c024fc0048966e3117ce35c33f61de40a736126b9de40a3f08c2c918361159c611dbf565b6040516115aa929190612ce2565b60405180910390a1829350505050949350505050565b6000816015600082815260200190815260200160002060009054906101000a900460ff16611623576040517f08c379a000000000000000000000000000000000000000000000000000000000815260040161161a90612d57565b60405180910390fd5b6002600381111561163757611636611f97565b5b600160009054906101000a900460ff16600381111561165957611658611f97565b5b14611699576040517f08c379a000000000000000000000000000000000000000000000000000000000815260040161169090612dc3565b60405180910390fd5b601760006116a5611dbf565b73ffffffffffffffffffffffffffffffffffffffff1673ffffffffffffffffffffffffffffffffffffffff16815260200190815260200160002060009054906101000a900460ff161561172d576040517f08c379a000000000000000000000000000000000000000000000000000000000815260040161172490612e2f565b60405180910390fd5b60006016600061173b611dbf565b73ffffffffffffffffffffffffffffffffffffffff1673ffffffffffffffffffffffffffffffffffffffff16815260200190815260200160002060009054906101000a900460ff16156117f057600160176000611796611dbf565b73ffffffffffffffffffffffffffffffffffffffff1673ffffffffffffffffffffffffffffffffffffffff16815260200190815260200160002060006101000a81548160ff02191690831515021790555060029050611854565b6001601660006117fe611dbf565b73ffffffffffffffffffffffffffffffffffffffff1673ffffffffffffffffffffffffffffffffffffffff16815260200190815260200160002060006101000a81548160ff021916908315150217905550600190505b600a60009054906101000a900473ffffffffffffffffffffffffffffffffffffffff1673ffffffffffffffffffffffffffffffffffffffff166323b872dd61189a611dbf565b600860009054906101000a900473ffffffffffffffffffffffffffffffffffffffff16670de0b6b3a76400006040518463ffffffff1660e01b81526004016118e49392919061294b565b602060405180830381600087803b1580156118fe57600080fd5b505af1158015611912573d6000803e3d6000fd5b505050506040513d601f19601f8201168201806040525081019061193691906129ae565b50600160146000868152602001908152602001600020546119579190612e4f565b601460008681526020019081526020016000208190555060018114156119bc577f55b96455afb13ec0bbc6897d397dfeb5730349900e66d4eacb0f9ae0b6462cb8846119a1611dbf565b6040516119af929190612ce2565b60405180910390a16119fd565b7f3efffae9bd4d25d7d683b9a8e677f1b1aa0d62181ff28de8692888a904ee3c7c846119e6611dbf565b6040516119f4929190612ce2565b60405180910390a15b600192505050919050565b6000816015600082815260200190815260200160002060009054906101000a900460ff16611a6b576040517f08c379a0000000000000000000000000000000000000000000000000000000008152600401611a6290612d57565b60405180910390fd5b6014600084815260200190815260200160002054915050919050565b600960009054906101000a900473ffffffffffffffffffffffffffffffffffffffff1673ffffffffffffffffffffffffffffffffffffffff16611ac8611dbf565b73ffffffffffffffffffffffffffffffffffffffff1614611b1e576040517f08c379a0000000000000000000000000000000000000000000000000000000008152600401611b15906125fa565b60405180910390fd5b60026003811115611b3257611b31611f97565b5b600160009054906101000a900460ff166003811115611b5457611b53611f97565b5b14611b94576040517f08c379a0000000000000000000000000000000000000000000000000000000008152600401611b8b90612ef1565b60405180910390fd5b60035460065442611ba59190612649565b11611be5576040517f08c379a0000000000000000000000000000000000000000000000000000000008152600401611bdc90612f5d565b60405180910390fd5b6003600160006101000a81548160ff02191690836003811115611c0b57611c0a611f97565b5b02179055507fbaf568cfe3e0f1f9d1e0e97658f129c75a38c15009706a253c7a2bd982be46d742604051611c3f9190611ea7565b60405180910390a1565b8060029080519060200190611c5f929190611deb565b5050565b6000601882604051611c759190612bcd565b908152602001604051809103902060009054906101000a900460ff169050919050565b6060600380811115611cad57611cac611f97565b5b600160009054906101000a900460ff166003811115611ccf57611cce611f97565b5b14611d0f576040517f08c379a0000000000000000000000000000000000000000000000000000000008152600401611d0690612fc9565b60405180910390fd5b6000611d1b6000611dc7565b905060008167ffffffffffffffff811115611d3957611d38612220565b5b604051908082528060200260200182016040528015611d675781602001602082028036833780820191505090505b5090506000600190505b828111611db6576014600082815260200190815260200160002054828281518110611d9f57611d9e61286b565b5b602002602001018181525050806001019050611d71565b50809250505090565b600033905090565b600081600001549050919050565b6001816000016000828254019250508190555050565b828054611df7906126ac565b90600052602060002090601f016020900481019282611e195760008555611e60565b82601f10611e3257805160ff1916838001178555611e60565b82800160010185558215611e60579182015b82811115611e5f578251825591602001919060010190611e44565b5b509050611e6d9190611e71565b5090565b5b80821115611e8a576000816000905550600101611e72565b5090565b6000819050919050565b611ea181611e8e565b82525050565b6000602082019050611ebc6000830184611e98565b92915050565b6000604051905090565b600080fd5b600080fd5b600073ffffffffffffffffffffffffffffffffffffffff82169050919050565b6000611f0182611ed6565b9050919050565b611f1181611ef6565b8114611f1c57600080fd5b50565b600081359050611f2e81611f08565b92915050565b600060208284031215611f4a57611f49611ecc565b5b6000611f5884828501611f1f565b91505092915050565b60008115159050919050565b611f7681611f61565b82525050565b6000602082019050611f916000830184611f6d565b92915050565b7f4e487b7100000000000000000000000000000000000000000000000000000000600052602160045260246000fd5b60048110611fd757611fd6611f97565b5b50565b6000819050611fe882611fc6565b919050565b6000611ff882611fda565b9050919050565b61200881611fed565b82525050565b60006020820190506120236000830184611fff565b92915050565b600080fd5b600080fd5b600080fd5b60008083601f84011261204e5761204d612029565b5b8235905067ffffffffffffffff81111561206b5761206a61202e565b5b60208301915083600182028301111561208757612086612033565b5b9250929050565b600080602083850312156120a5576120a4611ecc565b5b600083013567ffffffffffffffff8111156120c3576120c2611ed1565b5b6120cf85828601612038565b92509250509250929050565b600081519050919050565b600082825260208201905092915050565b60005b838110156121155780820151818401526020810190506120fa565b83811115612124576000848401525b50505050565b6000601f19601f8301169050919050565b6000612146826120db565b61215081856120e6565b93506121608185602086016120f7565b6121698161212a565b840191505092915050565b6000602082019050818103600083015261218e818461213b565b905092915050565b600081519050919050565b600082825260208201905092915050565b60006121bd82612196565b6121c781856121a1565b93506121d78185602086016120f7565b6121e08161212a565b840191505092915050565b60006040820190506122006000830185611f6d565b818103602083015261221281846121b2565b90509392505050565b600080fd5b7f4e487b7100000000000000000000000000000000000000000000000000000000600052604160045260246000fd5b6122588261212a565b810181811067ffffffffffffffff8211171561227757612276612220565b5b80604052505050565b600061228a611ec2565b9050612296828261224f565b919050565b600067ffffffffffffffff8211156122b6576122b5612220565b5b6122bf8261212a565b9050602081019050919050565b82818337600083830152505050565b60006122ee6122e98461229b565b612280565b90508281526020810184848401111561230a5761230961221b565b5b6123158482856122cc565b509392505050565b600082601f83011261233257612331612029565b5b81356123428482602086016122db565b91505092915050565b61235481611e8e565b811461235f57600080fd5b50565b6000813590506123718161234b565b92915050565b6000806000806080858703121561239157612390611ecc565b5b600085013567ffffffffffffffff8111156123af576123ae611ed1565b5b6123bb8782880161231d565b945050602085013567ffffffffffffffff8111156123dc576123db611ed1565b5b6123e88782880161231d565b935050604085013567ffffffffffffffff81111561240957612408611ed1565b5b6124158782880161231d565b925050606061242687828801612362565b91505092959194509250565b60006020828403121561244857612447611ecc565b5b600061245684828501612362565b91505092915050565b60006020828403121561247557612474611ecc565b5b600082013567ffffffffffffffff81111561249357612492611ed1565b5b61249f8482850161231d565b91505092915050565b600081519050919050565b600082825260208201905092915050565b6000819050602082019050919050565b6124dd81611e8e565b82525050565b60006124ef83836124d4565b60208301905092915050565b6000602082019050919050565b6000612513826124a8565b61251d81856124b3565b9350612528836124c4565b8060005b8381101561255957815161254088826124e3565b975061254b836124fb565b92505060018101905061252c565b5085935050505092915050565b600060208201905081810360008301526125808184612508565b905092915050565b7f6e6f7420617574686f72697a656420746f2063616c6c20746869732066756e6360008201527f74696f6e00000000000000000000000000000000000000000000000000000000602082015250565b60006125e46024836120e6565b91506125ef82612588565b604082019050919050565b60006020820190508181036000830152612613816125d7565b9050919050565b7f4e487b7100000000000000000000000000000000000000000000000000000000600052601160045260246000fd5b600061265482611e8e565b915061265f83611e8e565b9250828210156126725761267161261a565b5b828203905092915050565b7f4e487b7100000000000000000000000000000000000000000000000000000000600052602260045260246000fd5b600060028204905060018216806126c457607f821691505b602082108114156126d8576126d761267d565b5b50919050565b7f766f74696e672070726f63657373206e6f7420646f6e65000000000000000000600082015250565b60006127146017836120e6565b915061271f826126de565b602082019050919050565b6000602082019050818103600083015261274381612707565b9050919050565b600067ffffffffffffffff82111561276557612764612220565b5b602082029050602081019050919050565b60008151905061278581611f08565b92915050565b600061279e6127998461274a565b612280565b905080838252602082019050602084028301858111156127c1576127c0612033565b5b835b818110156127ea57806127d68882612776565b8452602084019350506020810190506127c3565b5050509392505050565b600082601f83011261280957612808612029565b5b815161281984826020860161278b565b91505092915050565b60006020828403121561283857612837611ecc565b5b600082015167ffffffffffffffff81111561285657612855611ed1565b5b612862848285016127f4565b91505092915050565b7f4e487b7100000000000000000000000000000000000000000000000000000000600052603260045260246000fd5b6128a381611ef6565b82525050565b60006020820190506128be600083018461289a565b92915050565b6000815190506128d38161234b565b92915050565b6000602082840312156128ef576128ee611ecc565b5b60006128fd848285016128c4565b91505092915050565b6000819050919050565b6000819050919050565b600061293561293061292b84612906565b612910565b611e8e565b9050919050565b6129458161291a565b82525050565b6000606082019050612960600083018661289a565b61296d602083018561289a565b61297a604083018461293c565b949350505050565b61298b81611f61565b811461299657600080fd5b50565b6000815190506129a881612982565b92915050565b6000602082840312156129c4576129c3611ecc565b5b60006129d284828501612999565b91505092915050565b6000819050919050565b6000612a006129fb6129f6846129db565b612910565b611e8e565b9050919050565b612a10816129e5565b82525050565b6000606082019050612a2b600083018661289a565b612a38602083018561289a565b612a456040830184612a07565b949350505050565b7f6e6f7420726563656976696e672070726f706f73616c73000000000000000000600082015250565b6000612a836017836120e6565b9150612a8e82612a4d565b602082019050919050565b60006020820190508181036000830152612ab281612a76565b9050919050565b7f206e6f74207965742074696d6500000000000000000000000000000000000000600082015250565b6000612aef600d836120e6565b9150612afa82612ab9565b602082019050919050565b60006020820190508181036000830152612b1e81612ae2565b9050919050565b7f796f7520616c7265616479207375626d697474656420612070726f706f73616c600082015250565b6000612b5b6020836120e6565b9150612b6682612b25565b602082019050919050565b60006020820190508181036000830152612b8a81612b4e565b9050919050565b600081905092915050565b6000612ba7826120db565b612bb18185612b91565b9350612bc18185602086016120f7565b80840191505092915050565b6000612bd98284612b9c565b915081905092915050565b7f70726f706f73616c206e616d6520616c72656164792065786973747300000000600082015250565b6000612c1a601c836120e6565b9150612c2582612be4565b602082019050919050565b60006020820190508181036000830152612c4981612c0d565b9050919050565b7f6d6178696d756d206e756d62657273206f6620616c6c6f7765642070726f706f60008201527f73616c7320726561636865640000000000000000000000000000000000000000602082015250565b6000612cac602c836120e6565b9150612cb782612c50565b604082019050919050565b60006020820190508181036000830152612cdb81612c9f565b9050919050565b6000604082019050612cf76000830185611e98565b612d04602083018461289a565b9392505050565b7f6964206973206e6f7420612070726f706f73616c000000000000000000000000600082015250565b6000612d416014836120e6565b9150612d4c82612d0b565b602082019050919050565b60006020820190508181036000830152612d7081612d34565b9050919050565b7f6e6f7420726563656976696e6720766f74657300000000000000000000000000600082015250565b6000612dad6013836120e6565b9150612db882612d77565b602082019050919050565b60006020820190508181036000830152612ddc81612da0565b9050919050565b7f796f752068617665207573656420757020796f757220766f7465730000000000600082015250565b6000612e19601b836120e6565b9150612e2482612de3565b602082019050919050565b60006020820190508181036000830152612e4881612e0c565b9050919050565b6000612e5a82611e8e565b9150612e6583611e8e565b9250827fffffffffffffffffffffffffffffffffffffffffffffffffffffffffffffffff03821115612e9a57612e9961261a565b5b828201905092915050565b7f6e6f7420766f74696e6700000000000000000000000000000000000000000000600082015250565b6000612edb600a836120e6565b9150612ee682612ea5565b602082019050919050565b60006020820190508181036000830152612f0a81612ece565b9050919050565b7f6e6f74207965742074696d650000000000000000000000000000000000000000600082015250565b6000612f47600c836120e6565b9150612f5282612f11565b602082019050919050565b60006020820190508181036000830152612f7681612f3a565b9050919050565b7f6e6f742070726f766964696e6720726573756c74730000000000000000000000600082015250565b6000612fb36015836120e6565b9150612fbe82612f7d565b602082019050919050565b60006020820190508181036000830152612fe281612fa6565b905091905056fea26469706673582212209d8c6607152606bc18777124ae64ec9c3530811f60e968204df7e35c699126c364736f6c63430008090033",
  "linkReferences": {},
  "deployedLinkReferences": {}
}